{
  "contractName": "Purchase",
  "abi": [
    {
      "inputs": [],
      "payable": false,
      "stateMutability": "nonpayable",
      "type": "constructor"
    },
    {
      "anonymous": false,
      "inputs": [
        {
          "indexed": false,
          "internalType": "uint256",
          "name": "enqno",
          "type": "uint256"
        },
        {
          "indexed": false,
          "internalType": "uint256",
          "name": "duration",
          "type": "uint256"
        },
        {
          "indexed": false,
          "internalType": "string",
          "name": "partNo",
          "type": "string"
        },
        {
          "indexed": false,
          "internalType": "string",
          "name": "partName",
          "type": "string"
        },
        {
          "indexed": false,
          "internalType": "uint256",
          "name": "qty",
          "type": "uint256"
        },
        {
          "indexed": false,
          "internalType": "string",
          "name": "buyerName",
          "type": "string"
        }
      ],
      "name": "EnqueryCreated",
      "type": "event"
    },
    {
      "constant": false,
      "inputs": [
        {
          "internalType": "uint256",
          "name": "enqno",
          "type": "uint256"
        },
        {
          "internalType": "uint256",
          "name": "duration",
          "type": "uint256"
        },
        {
          "internalType": "string",
          "name": "partNo",
          "type": "string"
        },
        {
          "internalType": "string",
          "name": "partName",
          "type": "string"
        },
        {
          "internalType": "string",
          "name": "uom",
          "type": "string"
        },
        {
          "internalType": "uint256",
          "name": "qty",
          "type": "uint256"
        },
        {
          "internalType": "string",
          "name": "buyerName",
          "type": "string"
        },
        {
          "internalType": "string",
          "name": "locationAddress",
          "type": "string"
        },
        {
          "internalType": "uint256",
          "name": "buyerDeposit",
          "type": "uint256"
        },
        {
          "internalType": "uint256",
          "name": "sellerRcvDeposit",
          "type": "uint256"
        },
        {
          "internalType": "uint256",
          "name": "sellerPaidDeposit",
          "type": "uint256"
        }
      ],
      "name": "createEnquery",
      "outputs": [
        {
          "internalType": "uint256",
          "name": "",
          "type": "uint256"
        }
      ],
      "payable": true,
      "stateMutability": "payable",
      "type": "function"
    },
    {
      "constant": false,
      "inputs": [
        {
          "internalType": "uint256",
          "name": "_enqid",
          "type": "uint256"
        },
        {
          "internalType": "uint256",
          "name": "_enqno",
          "type": "uint256"
        },
        {
          "internalType": "uint256",
          "name": "_amount",
          "type": "uint256"
        },
        {
          "internalType": "string",
          "name": "_supName",
          "type": "string"
        }
      ],
      "name": "placeBid",
      "outputs": [
        {
          "internalType": "bool",
          "name": "",
          "type": "bool"
        }
      ],
      "payable": true,
      "stateMutability": "payable",
      "type": "function"
    },
    {
      "constant": false,
      "inputs": [
        {
          "internalType": "uint256",
          "name": "_enqid",
          "type": "uint256"
        }
      ],
      "name": "endEnquery",
      "outputs": [],
      "payable": false,
      "stateMutability": "nonpayable",
      "type": "function"
    },
    {
      "constant": false,
      "inputs": [
        {
          "internalType": "uint256",
          "name": "_enqid",
          "type": "uint256"
        }
      ],
      "name": "receivedItem",
      "outputs": [],
      "payable": true,
      "stateMutability": "payable",
      "type": "function"
    },
    {
      "constant": false,
      "inputs": [
        {
          "internalType": "uint256",
          "name": "_enqid",
          "type": "uint256"
        }
      ],
      "name": "settlement",
      "outputs": [],
      "payable": true,
      "stateMutability": "payable",
      "type": "function"
    },
    {
      "constant": true,
      "inputs": [
        {
          "internalType": "uint256",
          "name": "id",
          "type": "uint256"
        }
      ],
      "name": "getEnquery",
      "outputs": [
        {
          "internalType": "uint256",
          "name": "",
          "type": "uint256"
        },
        {
          "internalType": "uint256",
          "name": "",
          "type": "uint256"
        },
        {
          "internalType": "string",
          "name": "",
          "type": "string"
        },
        {
          "internalType": "string",
          "name": "",
          "type": "string"
        },
        {
          "internalType": "string",
          "name": "",
          "type": "string"
        },
        {
          "internalType": "uint256",
          "name": "",
          "type": "uint256"
        },
        {
          "internalType": "string",
          "name": "",
          "type": "string"
        },
        {
          "internalType": "string",
          "name": "",
          "type": "string"
        },
        {
          "internalType": "enum Purchase.enqStatus",
          "name": "",
          "type": "uint8"
        },
        {
          "internalType": "uint256",
          "name": "",
          "type": "uint256"
        }
      ],
      "payable": false,
      "stateMutability": "view",
      "type": "function"
    },
    {
      "constant": true,
      "inputs": [
        {
          "internalType": "uint256",
          "name": "id",
          "type": "uint256"
        }
      ],
      "name": "getBid",
      "outputs": [
        {
          "internalType": "address",
          "name": "",
          "type": "address"
        },
        {
          "internalType": "uint256",
          "name": "",
          "type": "uint256"
        },
        {
          "internalType": "string",
          "name": "",
          "type": "string"
        },
        {
          "internalType": "address",
          "name": "",
          "type": "address"
        },
        {
          "internalType": "uint256",
          "name": "",
          "type": "uint256"
        },
        {
          "internalType": "uint256",
          "name": "",
          "type": "uint256"
        },
        {
          "internalType": "uint256",
          "name": "",
          "type": "uint256"
        }
      ],
      "payable": false,
      "stateMutability": "view",
      "type": "function"
    },
    {
      "constant": true,
      "inputs": [],
      "name": "getEnqueryCount",
      "outputs": [
        {
          "internalType": "uint256",
          "name": "count",
          "type": "uint256"
        }
      ],
      "payable": false,
      "stateMutability": "view",
      "type": "function"
    }
  ],
  "bytecode": "0x608060405234801561001057600080fd5b50612b66806100206000396000f3fe60806040526004361061007b5760003560e01c80637db6b6831161004e5780637db6b6831461024d5780638b3d402e1461033e578063d8c5c2c5146106a6578063e29d20c11461093b5761007b565b8063182825c7146100805780631be0c6bc146100bb5780633c889e6f146100e957806360ad23911461021f575b600080fd5b34801561008c57600080fd5b506100b9600480360360208110156100a357600080fd5b8101908080359060200190929190505050610966565b005b6100e7600480360360208110156100d157600080fd5b8101908080359060200190929190505050610b78565b005b3480156100f557600080fd5b506101226004803603602081101561010c57600080fd5b8101908080359060200190929190505050610e54565b604051808873ffffffffffffffffffffffffffffffffffffffff1673ffffffffffffffffffffffffffffffffffffffff168152602001878152602001806020018673ffffffffffffffffffffffffffffffffffffffff1673ffffffffffffffffffffffffffffffffffffffff168152602001858152602001848152602001838152602001828103825287818151815260200191508051906020019080838360005b838110156101de5780820151818401526020810190506101c3565b50505050905090810190601f16801561020b5780820380516001836020036101000a031916815260200191505b509850505050505050505060405180910390f35b61024b6004803603602081101561023557600080fd5b81019080803590602001909291905050506113e3565b005b6103246004803603608081101561026357600080fd5b810190808035906020019092919080359060200190929190803590602001909291908035906020019064010000000081111561029e57600080fd5b8201836020820111156102b057600080fd5b803590602001918460018302840111640100000000831117156102d257600080fd5b91908080601f016020809104026020016040519081016040528093929190818152602001838380828437600081840152601f19601f820116905080830192505050505050509192919290505050611765565b604051808215151515815260200191505060405180910390f35b610690600480360361016081101561035557600080fd5b8101908080359060200190929190803590602001909291908035906020019064010000000081111561038657600080fd5b82018360208201111561039857600080fd5b803590602001918460018302840111640100000000831117156103ba57600080fd5b91908080601f016020809104026020016040519081016040528093929190818152602001838380828437600081840152601f19601f8201169050808301925050505050505091929192908035906020019064010000000081111561041d57600080fd5b82018360208201111561042f57600080fd5b8035906020019184600183028401116401000000008311171561045157600080fd5b91908080601f016020809104026020016040519081016040528093929190818152602001838380828437600081840152601f19601f820116905080830192505050505050509192919290803590602001906401000000008111156104b457600080fd5b8201836020820111156104c657600080fd5b803590602001918460018302840111640100000000831117156104e857600080fd5b91908080601f016020809104026020016040519081016040528093929190818152602001838380828437600081840152601f19601f820116905080830192505050505050509192919290803590602001909291908035906020019064010000000081111561055557600080fd5b82018360208201111561056757600080fd5b8035906020019184600183028401116401000000008311171561058957600080fd5b91908080601f016020809104026020016040519081016040528093929190818152602001838380828437600081840152601f19601f820116905080830192505050505050509192919290803590602001906401000000008111156105ec57600080fd5b8201836020820111156105fe57600080fd5b8035906020019184600183028401116401000000008311171561062057600080fd5b91908080601f016020809104026020016040519081016040528093929190818152602001838380828437600081840152601f19601f820116905080830192505050505050509192919290803590602001909291908035906020019092919080359060200190929190505050611dee565b6040518082815260200191505060405180910390f35b3480156106b257600080fd5b506106df600480360360208110156106c957600080fd5b810190808035906020019092919050505061229f565b604051808b81526020018a8152602001806020018060200180602001898152602001806020018060200188600381111561071557fe5b60ff16815260200187815260200186810386528e818151815260200191508051906020019080838360005b8381101561075b578082015181840152602081019050610740565b50505050905090810190601f1680156107885780820380516001836020036101000a031916815260200191505b5086810385528d818151815260200191508051906020019080838360005b838110156107c15780820151818401526020810190506107a6565b50505050905090810190601f1680156107ee5780820380516001836020036101000a031916815260200191505b5086810384528c818151815260200191508051906020019080838360005b8381101561082757808201518184015260208101905061080c565b50505050905090810190601f1680156108545780820380516001836020036101000a031916815260200191505b5086810383528a818151815260200191508051906020019080838360005b8381101561088d578082015181840152602081019050610872565b50505050905090810190601f1680156108ba5780820380516001836020036101000a031916815260200191505b50868103825289818151815260200191508051906020019080838360005b838110156108f35780820151818401526020810190506108d8565b50505050905090810190601f1680156109205780820380516001836020036101000a031916815260200191505b509f5050505050505050505050505050505060405180910390f35b34801561094757600080fd5b50610950612844565b6040518082815260200191505060405180910390f35b60008054905081106109e0576040517f08c379a00000000000000000000000000000000000000000000000000000000081526004018080602001828103825260138152602001807f6e6f7420612076616c696420656e71756572790000000000000000000000000081525060200191505060405180910390fd5b600081815481106109ed57fe5b9060005260206000209060100201600c0160009054906101000a900473ffffffffffffffffffffffffffffffffffffffff1673ffffffffffffffffffffffffffffffffffffffff163373ffffffffffffffffffffffffffffffffffffffff1614610abf576040517f08c379a00000000000000000000000000000000000000000000000000000000081526004018080602001828103825260208152602001807f6a7573742062757965722063616e20636c6f73652074686520656e717565727981525060200191505060405180910390fd5b4260008281548110610acd57fe5b90600052602060002090601002016001015410610b35576040517f08c379a0000000000000000000000000000000000000000000000000000000008152600401808060200182810382526024815260200180612a436024913960400191505060405180910390fd5b600160008281548110610b4457fe5b906000526020600020906010020160080160006101000a81548160ff02191690836003811115610b7057fe5b021790555050565b6000805490508110610bf2576040517f08c379a00000000000000000000000000000000000000000000000000000000081526004018080602001828103825260138152602001807f6e6f7420612076616c696420656e71756572790000000000000000000000000081525060200191505060405180910390fd5b60016003811115610bff57fe5b60008281548110610c0c57fe5b906000526020600020906010020160080160009054906101000a900460ff166003811115610c3657fe5b14610ca9576040517f08c379a00000000000000000000000000000000000000000000000000000000081526004018080602001828103825260208152602001807f456e7175657279206d75737420626520696e2074686520656e6420737461746581525060200191505060405180910390fd5b60008181548110610cb657fe5b9060005260206000209060100201600c0160009054906101000a900473ffffffffffffffffffffffffffffffffffffffff1673ffffffffffffffffffffffffffffffffffffffff163373ffffffffffffffffffffffffffffffffffffffff1614610d6b576040517f08c379a000000000000000000000000000000000000000000000000000000000815260040180806020018281038252602a815260200180612abd602a913960400191505060405180910390fd5b600260008281548110610d7a57fe5b906000526020600020906010020160080160006101000a81548160ff02191690836003811115610da657fe5b021790555060008181548110610db857fe5b906000526020600020906010020160090160020160009054906101000a900473ffffffffffffffffffffffffffffffffffffffff1673ffffffffffffffffffffffffffffffffffffffff166108fc60008381548110610e1357fe5b9060005260206000209060100201600e01549081150290604051600060405180830381858888f19350505050158015610e50573d6000803e3d6000fd5b5050565b6000806060600080600080610e67612850565b60008981548110610e7457fe5b9060005260206000209060100201604051806101c00160405290816000820154815260200160018201548152602001600282018054600181600116156101000203166002900480601f016020809104026020016040519081016040528092919081815260200182805460018160011615610100020316600290048015610f3b5780601f10610f1057610100808354040283529160200191610f3b565b820191906000526020600020905b815481529060010190602001808311610f1e57829003601f168201915b50505050508152602001600382018054600181600116156101000203166002900480601f016020809104026020016040519081016040528092919081815260200182805460018160011615610100020316600290048015610fdd5780601f10610fb257610100808354040283529160200191610fdd565b820191906000526020600020905b815481529060010190602001808311610fc057829003601f168201915b50505050508152602001600482018054600181600116156101000203166002900480601f01602080910402602001604051908101604052809291908181526020018280546001816001161561010002031660029004801561107f5780601f106110545761010080835404028352916020019161107f565b820191906000526020600020905b81548152906001019060200180831161106257829003601f168201915b5050505050815260200160058201548152602001600682018054600181600116156101000203166002900480601f01602080910402602001604051908101604052809291908181526020018280546001816001161561010002031660029004801561112b5780601f106111005761010080835404028352916020019161112b565b820191906000526020600020905b81548152906001019060200180831161110e57829003601f168201915b50505050508152602001600782018054600181600116156101000203166002900480601f0160208091040260200160405190810160405280929190818152602001828054600181600116156101000203166002900480156111cd5780601f106111a2576101008083540402835291602001916111cd565b820191906000526020600020905b8154815290600101906020018083116111b057829003601f168201915b505050505081526020016008820160009054906101000a900460ff1660038111156111f457fe5b60038111156111ff57fe5b81526020016009820160405180606001604052908160008201548152602001600182018054600181600116156101000203166002900480601f0160208091040260200160405190810160405280929190818152602001828054600181600116156101000203166002900480156112b65780601f1061128b576101008083540402835291602001916112b6565b820191906000526020600020905b81548152906001019060200180831161129957829003601f168201915b505050505081526020016002820160009054906101000a900473ffffffffffffffffffffffffffffffffffffffff1673ffffffffffffffffffffffffffffffffffffffff1673ffffffffffffffffffffffffffffffffffffffff16815250508152602001600c820160009054906101000a900473ffffffffffffffffffffffffffffffffffffffff1673ffffffffffffffffffffffffffffffffffffffff1673ffffffffffffffffffffffffffffffffffffffff168152602001600d8201548152602001600e8201548152602001600f820154815250509050806101200151604001518161012001516000015182610120015160200151836101400151846101800151856101a0015142869650849450839350975097509750975097509750975050919395979092949650565b600080549050811061145d576040517f08c379a00000000000000000000000000000000000000000000000000000000081526004018080602001828103825260138152602001807f6e6f7420612076616c696420656e71756572790000000000000000000000000081525060200191505060405180910390fd5b6002600381111561146a57fe5b6000828154811061147757fe5b906000526020600020906010020160080160009054906101000a900460ff1660038111156114a157fe5b146114f7576040517f08c379a0000000000000000000000000000000000000000000000000000000008152600401808060200182810382526021815260200180612ae76021913960400191505060405180910390fd5b6000818154811061150457fe5b906000526020600020906010020160090160020160009054906101000a900473ffffffffffffffffffffffffffffffffffffffff1673ffffffffffffffffffffffffffffffffffffffff163373ffffffffffffffffffffffffffffffffffffffff16146115d9576040517f08c379a000000000000000000000000000000000000000000000000000000000815260040180806020018281038252601d8152602001807f6a7573742077696e6e65722063616e20646f20736574746c656d656e7400000081525060200191505060405180910390fd5b6003600082815481106115e857fe5b906000526020600020906010020160080160006101000a81548160ff0219169083600381111561161457fe5b02179055506000818154811061162657fe5b906000526020600020906010020160090160020160009054906101000a900473ffffffffffffffffffffffffffffffffffffffff1673ffffffffffffffffffffffffffffffffffffffff166108fc6000838154811061168157fe5b9060005260206000209060100201600f01549081150290604051600060405180830381858888f193505050501580156116be573d6000803e3d6000fd5b50600081815481106116cc57fe5b9060005260206000209060100201600c0160009054906101000a900473ffffffffffffffffffffffffffffffffffffffff1673ffffffffffffffffffffffffffffffffffffffff166108fc6000838154811061172457fe5b9060005260206000209060100201600d01549081150290604051600060405180830381858888f19350505050158015611761573d6000803e3d6000fd5b5050565b60008060008054905086106117e2576040517f08c379a00000000000000000000000000000000000000000000000000000000081526004018080602001828103825260138152602001807f6e6f7420612076616c696420656e71756572790000000000000000000000000081525060200191505060405180910390fd5b600086815481106117ef57fe5b9060005260206000209060100201600c0160009054906101000a900473ffffffffffffffffffffffffffffffffffffffff1673ffffffffffffffffffffffffffffffffffffffff163373ffffffffffffffffffffffffffffffffffffffff1614156118c2576040517f08c379a00000000000000000000000000000000000000000000000000000000081526004018080602001828103825260168152602001807f4275796572206e6f7420616c6c6f7720746f206269640000000000000000000081525060200191505060405180910390fd5b84600087815481106118d057fe5b90600052602060002090601002016000015414611955576040517f08c379a00000000000000000000000000000000000000000000000000000000081526004018080602001828103825260168152602001807f6e6f7420612076616c696420656e7175657279206e6f0000000000000000000081525060200191505060405180910390fd5b6000600381111561196257fe5b6000878154811061196f57fe5b906000526020600020906010020160080160009054906101000a900460ff16600381111561199957fe5b14611a0c576040517f08c379a00000000000000000000000000000000000000000000000000000000081526004018080602001828103825260198152602001807f656e7175657279206e6f74206f70656e20616e79206d6f72650000000000000081525060200191505060405180910390fd5b600073ffffffffffffffffffffffffffffffffffffffff1660008781548110611a3157fe5b906000526020600020906010020160090160020160009054906101000a900473ffffffffffffffffffffffffffffffffffffffff1673ffffffffffffffffffffffffffffffffffffffff1614611afb578360008781548110611a8f57fe5b90600052602060002090601002016009016000015411611afa576040517f08c379a000000000000000000000000000000000000000000000000000000000815260040180806020018281038252602e815260200180612a8f602e913960400191505060405180910390fd5b5b4260008781548110611b0957fe5b90600052602060002090601002016001015411611b8e576040517f08c379a00000000000000000000000000000000000000000000000000000000081526004018080602001828103825260168152602001807f656e717565727920686173206265656e20656e6465640000000000000000000081525060200191505060405180910390fd5b60008681548110611b9b57fe5b9060005260206000209060100201600f015460008781548110611bba57fe5b9060005260206000209060100201600e0154019050803414611c27576040517f08c379a0000000000000000000000000000000000000000000000000000000008152600401808060200182810382526028815260200180612a676028913960400191505060405180910390fd5b600073ffffffffffffffffffffffffffffffffffffffff1660008781548110611c4c57fe5b906000526020600020906010020160090160020160009054906101000a900473ffffffffffffffffffffffffffffffffffffffff1673ffffffffffffffffffffffffffffffffffffffff1614611d255760008681548110611ca957fe5b906000526020600020906010020160090160020160009054906101000a900473ffffffffffffffffffffffffffffffffffffffff1673ffffffffffffffffffffffffffffffffffffffff166108fc829081150290604051600060405180830381858888f19350505050158015611d23573d6000803e3d6000fd5b505b8360008781548110611d3357fe5b9060005260206000209060100201600901600001819055508260008781548110611d5957fe5b90600052602060002090601002016009016001019080519060200190611d809291906128e6565b503360008781548110611d8f57fe5b906000526020600020906010020160090160020160006101000a81548173ffffffffffffffffffffffffffffffffffffffff021916908373ffffffffffffffffffffffffffffffffffffffff1602179055506001915050949350505050565b6000833414611e48576040517f08c379a000000000000000000000000000000000000000000000000000000000815260040180806020018281038252602a815260200180612b08602a913960400191505060405180910390fd5b611e50612850565b6000808054905090508d8260000181815250508c42018260200181815250508b82604001819052508a8260600181905250898260800181905250888260a0018181525050878260c00181905250868260e00181905250600082610120015160000181815250503382610140019073ffffffffffffffffffffffffffffffffffffffff16908173ffffffffffffffffffffffffffffffffffffffff16815250508582610160018181525050848261018001818152505083826101a00181815250506000829080600181540180825580915050906001820390600052602060002090601002016000909192909190915060008201518160000155602082015181600101556040820151816002019080519060200190611f6e929190612966565b506060820151816003019080519060200190611f8b929190612966565b506080820151816004019080519060200190611fa8929190612966565b5060a0820151816005015560c0820151816006019080519060200190611fcf929190612966565b5060e0820151816007019080519060200190611fec929190612966565b506101008201518160080160006101000a81548160ff0219169083600381111561201257fe5b021790555061012082015181600901600082015181600001556020820151816001019080519060200190612047929190612966565b5060408201518160020160006101000a81548173ffffffffffffffffffffffffffffffffffffffff021916908373ffffffffffffffffffffffffffffffffffffffff160217905550505061014082015181600c0160006101000a81548173ffffffffffffffffffffffffffffffffffffffff021916908373ffffffffffffffffffffffffffffffffffffffff16021790555061016082015181600d015561018082015181600e01556101a082015181600f01555050507f233c0ed85fe599fe828012acf01982d4af7c7157747b36cd4f7e281dac0d49848e8e8e8e8d8d60405180878152602001868152602001806020018060200185815260200180602001848103845288818151815260200191508051906020019080838360005b8381101561217e578082015181840152602081019050612163565b50505050905090810190601f1680156121ab5780820380516001836020036101000a031916815260200191505b50848103835287818151815260200191508051906020019080838360005b838110156121e45780820151818401526020810190506121c9565b50505050905090810190601f1680156122115780820380516001836020036101000a031916815260200191505b50848103825285818151815260200191508051906020019080838360005b8381101561224a57808201518184015260208101905061222f565b50505050905090810190601f1680156122775780820380516001836020036101000a031916815260200191505b50995050505050505050505060405180910390a180925050509b9a5050505050505050505050565b600080606080606060006060806000806122b7612850565b60008c815481106122c457fe5b9060005260206000209060100201604051806101c00160405290816000820154815260200160018201548152602001600282018054600181600116156101000203166002900480601f01602080910402602001604051908101604052809291908181526020018280546001816001161561010002031660029004801561238b5780601f106123605761010080835404028352916020019161238b565b820191906000526020600020905b81548152906001019060200180831161236e57829003601f168201915b50505050508152602001600382018054600181600116156101000203166002900480601f01602080910402602001604051908101604052809291908181526020018280546001816001161561010002031660029004801561242d5780601f106124025761010080835404028352916020019161242d565b820191906000526020600020905b81548152906001019060200180831161241057829003601f168201915b50505050508152602001600482018054600181600116156101000203166002900480601f0160208091040260200160405190810160405280929190818152602001828054600181600116156101000203166002900480156124cf5780601f106124a4576101008083540402835291602001916124cf565b820191906000526020600020905b8154815290600101906020018083116124b257829003601f168201915b5050505050815260200160058201548152602001600682018054600181600116156101000203166002900480601f01602080910402602001604051908101604052809291908181526020018280546001816001161561010002031660029004801561257b5780601f106125505761010080835404028352916020019161257b565b820191906000526020600020905b81548152906001019060200180831161255e57829003601f168201915b50505050508152602001600782018054600181600116156101000203166002900480601f01602080910402602001604051908101604052809291908181526020018280546001816001161561010002031660029004801561261d5780601f106125f25761010080835404028352916020019161261d565b820191906000526020600020905b81548152906001019060200180831161260057829003601f168201915b505050505081526020016008820160009054906101000a900460ff16600381111561264457fe5b600381111561264f57fe5b81526020016009820160405180606001604052908160008201548152602001600182018054600181600116156101000203166002900480601f0160208091040260200160405190810160405280929190818152602001828054600181600116156101000203166002900480156127065780601f106126db57610100808354040283529160200191612706565b820191906000526020600020905b8154815290600101906020018083116126e957829003601f168201915b505050505081526020016002820160009054906101000a900473ffffffffffffffffffffffffffffffffffffffff1673ffffffffffffffffffffffffffffffffffffffff1673ffffffffffffffffffffffffffffffffffffffff16815250508152602001600c820160009054906101000a900473ffffffffffffffffffffffffffffffffffffffff1673ffffffffffffffffffffffffffffffffffffffff1673ffffffffffffffffffffffffffffffffffffffff168152602001600d8201548152602001600e8201548152602001600f820154815250509050806000015181602001518260400151836060015184608001518560a001518660c001518760e001518861010001518961016001518797508696508595508393508292509a509a509a509a509a509a509a509a509a509a50509193959799509193959799565b60008080549050905090565b604051806101c001604052806000815260200160008152602001606081526020016060815260200160608152602001600081526020016060815260200160608152602001600060038111156128a157fe5b81526020016128ae6129e6565b8152602001600073ffffffffffffffffffffffffffffffffffffffff1681526020016000815260200160008152602001600081525090565b828054600181600116156101000203166002900490600052602060002090601f016020900481019282601f1061292757805160ff1916838001178555612955565b82800160010185558215612955579182015b82811115612954578251825591602001919060010190612939565b5b5090506129629190612a1d565b5090565b828054600181600116156101000203166002900490600052602060002090601f016020900481019282601f106129a757805160ff19168380011785556129d5565b828001600101855582156129d5579182015b828111156129d45782518255916020019190600101906129b9565b5b5090506129e29190612a1d565b5090565b60405180606001604052806000815260200160608152602001600073ffffffffffffffffffffffffffffffffffffffff1681525090565b612a3f91905b80821115612a3b576000816000905550600101612a23565b5090565b9056fe54686520656e71756572792068617320736f6d652074696d657320746f2066696e697368796f75206465706f736974206e6f7420657175616c20746865207265717569726520616d6f756e74796f75722071756f746174696f6e2070726963652067726561746572207468616e206c6f77657374206f666665726a7573742062757965722063616e2074656c6c207468617420726563656976656420746865206974656d456e7175657279206d75737420626520696e2072656365697665642073746174656275796572206465706f73697465206973206e6f74206173206d756368206173206d656e74696f6e6564a265627a7a723158205d0b70fb7bcd379819735be99a39d5cf68c729232b809c8abcee25ebf571d2d964736f6c63430005100032",
  "source": "pragma solidity >=0.4.22 <0.9.0;\r\n\r\n//pragma experimental ABIEncoderV2;\r\n\r\ncontract Purchase {\r\n    enum enqStatus {created, ended, received, paid}\r\n    struct Bid {\r\n        uint256 amount;\r\n        string supName;\r\n        address payable bidder;\r\n    }\r\n\r\n    struct Enquery {\r\n        uint256 enqno;\r\n        uint256 enqEndTime;\r\n        string partNo;\r\n        string partName;\r\n        string uom;\r\n        uint256 qty;\r\n        string buyerName;\r\n        string locationAddress;\r\n        enqStatus status;\r\n        Bid lowestBid;\r\n        address payable buyerAdd;\r\n        uint256 buyerDeposit;\r\n        uint256 sellerRcvDeposit;\r\n        uint256 sellerPaidDeposit;\r\n    }\r\n\r\n    Enquery[] enqueries;\r\n\r\n    event EnqueryCreated(\r\n        uint256 enqno,\r\n        uint256 duration,\r\n        string partNo,\r\n        string partName,\r\n        uint256 qty,\r\n        string buyerName\r\n    );\r\n\r\n    constructor() public {}\r\n\r\n    function createEnquery(\r\n        uint256 enqno,\r\n        uint256 duration,\r\n        string memory partNo,\r\n        string memory partName,\r\n        string memory uom,\r\n        uint256 qty,\r\n        string memory buyerName,\r\n        string memory locationAddress,\r\n        uint256 buyerDeposit,\r\n        uint256 sellerRcvDeposit,\r\n        uint256 sellerPaidDeposit\r\n    ) public payable returns (uint256) {\r\n        require(\r\n            msg.value == buyerDeposit,\r\n            \"buyer deposite is not as much as mentioned\"\r\n        );\r\n        Enquery memory enquery;\r\n        uint256 id = enqueries.length;\r\n        enquery.enqno = enqno;\r\n        enquery.enqEndTime = block.timestamp + duration;\r\n        enquery.partNo = partNo;\r\n        enquery.partName = partName;\r\n        enquery.uom = uom;\r\n        enquery.qty = qty;\r\n        enquery.buyerName = buyerName;\r\n        enquery.locationAddress = locationAddress;\r\n        enquery.lowestBid.amount = 0;\r\n        enquery.buyerAdd = msg.sender;\r\n        enquery.buyerDeposit = buyerDeposit;\r\n        enquery.sellerRcvDeposit = sellerRcvDeposit;\r\n        enquery.sellerPaidDeposit = sellerPaidDeposit;\r\n        enqueries.push(enquery);\r\n        emit EnqueryCreated(enqno, duration, partNo, partName, qty, buyerName);\r\n        return id;\r\n    }\r\n\r\n    //  modifier notBuyer(uint _enqid) {\r\n    //       require(msg.sender != enqueries[_enqid].buyerAdd, \"Buyer not allow to bid\");\r\n    //       _;\r\n    //   }\r\n\r\n    function placeBid(\r\n        uint256 _enqid,\r\n        uint256 _enqno,\r\n        uint256 _amount,\r\n        string memory _supName\r\n    ) public payable returns (bool) {\r\n        //notBuyer(_enqid) returns (bool) {\r\n        uint256 refundVal;\r\n        require(_enqid < enqueries.length, \"not a valid enquery\");\r\n        require(\r\n            msg.sender != enqueries[_enqid].buyerAdd,\r\n            \"Buyer not allow to bid\"\r\n        );\r\n        require(enqueries[_enqid].enqno == _enqno, \"not a valid enquery no\");\r\n        require(\r\n            enqueries[_enqid].status == enqStatus.created,\r\n            \"enquery not open any more\"\r\n        );\r\n        if (enqueries[_enqid].lowestBid.bidder != address(0)) {\r\n            require(\r\n                enqueries[_enqid].lowestBid.amount > _amount,\r\n                \"your quotation price greater than lowest offer\"\r\n            );\r\n        }\r\n        require(\r\n            enqueries[_enqid].enqEndTime > block.timestamp,\r\n            \"enquery has been ended\"\r\n        );\r\n        refundVal =\r\n            enqueries[_enqid].sellerRcvDeposit +\r\n            enqueries[_enqid].sellerPaidDeposit;\r\n        require(\r\n            msg.value == refundVal,\r\n            \"you deposit not equal the require amount\"\r\n        );\r\n        if (enqueries[_enqid].lowestBid.bidder != address(0)) {\r\n            enqueries[_enqid].lowestBid.bidder.transfer(refundVal); // refund back the seller that not win the enquery\r\n        }\r\n        enqueries[_enqid].lowestBid.amount = _amount;\r\n        enqueries[_enqid].lowestBid.supName = _supName;\r\n        enqueries[_enqid].lowestBid.bidder = msg.sender;\r\n        return true;\r\n    }\r\n\r\n    function endEnquery(uint256 _enqid) public {\r\n        require(_enqid < enqueries.length, \"not a valid enquery\");\r\n        require(\r\n            msg.sender == enqueries[_enqid].buyerAdd,\r\n            \"just buyer can close the enquery\"\r\n        );\r\n        require(\r\n            enqueries[_enqid].enqEndTime < block.timestamp,\r\n            \"The enquery has some times to finish\"\r\n        );\r\n        enqueries[_enqid].status = enqStatus.ended;\r\n    }\r\n\r\n    function receivedItem(uint256 _enqid) public payable {\r\n        require(_enqid < enqueries.length, \"not a valid enquery\");\r\n        require(\r\n            enqueries[_enqid].status == enqStatus.ended,\r\n            \"Enquery must be in the end state\"\r\n        );\r\n        require(\r\n            msg.sender == enqueries[_enqid].buyerAdd,\r\n            \"just buyer can tell that received the item\"\r\n        );\r\n        enqueries[_enqid].status = enqStatus.received;\r\n        enqueries[_enqid].lowestBid.bidder.transfer(\r\n            enqueries[_enqid].sellerRcvDeposit\r\n        ); // refund back the winner when buyer received the item\r\n    }\r\n\r\n    function settlement(uint256 _enqid) public payable {\r\n        require(_enqid < enqueries.length, \"not a valid enquery\");\r\n        require(\r\n            enqueries[_enqid].status == enqStatus.received,\r\n            \"Enquery must be in received state\"\r\n        );\r\n        require(\r\n            msg.sender == enqueries[_enqid].lowestBid.bidder,\r\n            \"just winner can do settlement\"\r\n        );\r\n        enqueries[_enqid].status = enqStatus.paid;\r\n        enqueries[_enqid].lowestBid.bidder.transfer(\r\n            enqueries[_enqid].sellerPaidDeposit\r\n        ); // refund back the winner and buyer when settlement has been done\r\n        enqueries[_enqid].buyerAdd.transfer(enqueries[_enqid].buyerDeposit); // refund back the winner and buyer when settlement has been done\r\n    }\r\n\r\n    function getEnquery(uint256 id)\r\n        public\r\n        view\r\n        returns (\r\n            uint256,\r\n            uint256,\r\n            string memory,\r\n            string memory,\r\n            string memory,\r\n            uint256,\r\n            string memory,\r\n            string memory,\r\n            enqStatus,\r\n            uint256\r\n        )\r\n    {\r\n        Enquery memory enquery = enqueries[id];\r\n        return (\r\n            enquery.enqno,\r\n            enquery.enqEndTime,\r\n            enquery.partNo,\r\n            enquery.partName,\r\n            enquery.uom,\r\n            enquery.qty,\r\n            enquery.buyerName,\r\n            enquery.locationAddress,\r\n            enquery.status,\r\n            enquery.buyerDeposit\r\n        );\r\n    }\r\n\r\n    function getBid(uint256 id)\r\n        public\r\n        view\r\n        returns (\r\n            address,\r\n            uint256,\r\n            string memory,\r\n            address,\r\n            uint256,\r\n            uint256,\r\n            uint256\r\n        )\r\n    {\r\n        Enquery memory enquery = enqueries[id];\r\n        return (\r\n            enquery.lowestBid.bidder,\r\n            enquery.lowestBid.amount,\r\n            enquery.lowestBid.supName,\r\n            enquery.buyerAdd,\r\n            enquery.sellerRcvDeposit,\r\n            enquery.sellerPaidDeposit,\r\n            now\r\n        );\r\n    }\r\n\r\n    function getEnqueryCount() public view returns (uint256 count) {\r\n        return (enqueries.length);\r\n    }\r\n}\r\n",
  "sourcePath": "D:/dapp/purchase/contracts/Purchase.sol",
  "compiler": {
    "name": "solc",
    "version": "0.5.16+commit.9c3226ce.Emscripten.clang"
  },
  "schemaVersion": "3.4.0",
  "updatedAt": "2021-06-07T09:05:54.442Z",
  "networkType": "ethereum",
  "devdoc": {
    "methods": {}
  },
  "userdoc": {
    "methods": {}
  }
}