{
  "contractName": "Purchase",
  "abi": [
    {
      "anonymous": false,
      "inputs": [
        {
          "indexed": false,
          "internalType": "uint256",
          "name": "id",
          "type": "uint256"
        },
        {
          "indexed": false,
          "internalType": "uint256",
          "name": "enqno",
          "type": "uint256"
        },
        {
          "indexed": false,
          "internalType": "uint256",
          "name": "duration",
          "type": "uint256"
        },
        {
          "indexed": false,
          "internalType": "string",
          "name": "partNo",
          "type": "string"
        },
        {
          "indexed": false,
          "internalType": "string",
          "name": "partName",
          "type": "string"
        },
        {
          "indexed": false,
          "internalType": "uint256",
          "name": "qty",
          "type": "uint256"
        },
        {
          "indexed": false,
          "internalType": "string",
          "name": "buyerName",
          "type": "string"
        }
      ],
      "name": "EnqueryCreated",
      "type": "event"
    },
    {
      "constant": false,
      "inputs": [
        {
          "internalType": "uint256",
          "name": "enqno",
          "type": "uint256"
        },
        {
          "internalType": "uint256",
          "name": "duration",
          "type": "uint256"
        },
        {
          "internalType": "string",
          "name": "partNo",
          "type": "string"
        },
        {
          "internalType": "string",
          "name": "partName",
          "type": "string"
        },
        {
          "internalType": "string",
          "name": "uom",
          "type": "string"
        },
        {
          "internalType": "uint256",
          "name": "qty",
          "type": "uint256"
        },
        {
          "internalType": "string",
          "name": "buyerName",
          "type": "string"
        },
        {
          "internalType": "string",
          "name": "locationAddress",
          "type": "string"
        },
        {
          "internalType": "uint256",
          "name": "buyerDeposit",
          "type": "uint256"
        },
        {
          "internalType": "uint256",
          "name": "sellerRcvDeposit",
          "type": "uint256"
        },
        {
          "internalType": "uint256",
          "name": "sellerPaidDeposit",
          "type": "uint256"
        }
      ],
      "name": "createEnquery",
      "outputs": [
        {
          "internalType": "uint256",
          "name": "",
          "type": "uint256"
        }
      ],
      "payable": true,
      "stateMutability": "payable",
      "type": "function"
    },
    {
      "constant": false,
      "inputs": [
        {
          "internalType": "uint256",
          "name": "_enqid",
          "type": "uint256"
        },
        {
          "internalType": "uint256",
          "name": "_enqno",
          "type": "uint256"
        },
        {
          "internalType": "uint256",
          "name": "_amount",
          "type": "uint256"
        },
        {
          "internalType": "string",
          "name": "_supName",
          "type": "string"
        }
      ],
      "name": "placeBid",
      "outputs": [
        {
          "internalType": "bool",
          "name": "",
          "type": "bool"
        }
      ],
      "payable": true,
      "stateMutability": "payable",
      "type": "function"
    },
    {
      "constant": false,
      "inputs": [
        {
          "internalType": "uint256",
          "name": "_enqid",
          "type": "uint256"
        }
      ],
      "name": "endEnquery",
      "outputs": [
        {
          "internalType": "bool",
          "name": "",
          "type": "bool"
        }
      ],
      "payable": false,
      "stateMutability": "nonpayable",
      "type": "function"
    },
    {
      "constant": false,
      "inputs": [
        {
          "internalType": "uint256",
          "name": "_enqid",
          "type": "uint256"
        }
      ],
      "name": "cancleEnquery",
      "outputs": [
        {
          "internalType": "bool",
          "name": "",
          "type": "bool"
        }
      ],
      "payable": false,
      "stateMutability": "nonpayable",
      "type": "function"
    },
    {
      "constant": false,
      "inputs": [
        {
          "internalType": "uint256",
          "name": "_enqid",
          "type": "uint256"
        }
      ],
      "name": "receivedItem",
      "outputs": [
        {
          "internalType": "bool",
          "name": "",
          "type": "bool"
        }
      ],
      "payable": true,
      "stateMutability": "payable",
      "type": "function"
    },
    {
      "constant": false,
      "inputs": [
        {
          "internalType": "uint256",
          "name": "_enqid",
          "type": "uint256"
        }
      ],
      "name": "settlement",
      "outputs": [
        {
          "internalType": "bool",
          "name": "",
          "type": "bool"
        }
      ],
      "payable": true,
      "stateMutability": "payable",
      "type": "function"
    },
    {
      "constant": true,
      "inputs": [
        {
          "internalType": "uint256",
          "name": "id",
          "type": "uint256"
        }
      ],
      "name": "getEnquery",
      "outputs": [
        {
          "internalType": "uint256",
          "name": "",
          "type": "uint256"
        },
        {
          "internalType": "uint256",
          "name": "",
          "type": "uint256"
        },
        {
          "internalType": "string",
          "name": "",
          "type": "string"
        },
        {
          "internalType": "string",
          "name": "",
          "type": "string"
        },
        {
          "internalType": "string",
          "name": "",
          "type": "string"
        },
        {
          "internalType": "uint256",
          "name": "",
          "type": "uint256"
        },
        {
          "internalType": "string",
          "name": "",
          "type": "string"
        },
        {
          "internalType": "string",
          "name": "",
          "type": "string"
        },
        {
          "internalType": "enum Purchase.enqStatus",
          "name": "",
          "type": "uint8"
        },
        {
          "internalType": "uint256",
          "name": "",
          "type": "uint256"
        }
      ],
      "payable": false,
      "stateMutability": "view",
      "type": "function"
    },
    {
      "constant": true,
      "inputs": [
        {
          "internalType": "uint256",
          "name": "id",
          "type": "uint256"
        }
      ],
      "name": "getBid",
      "outputs": [
        {
          "internalType": "address",
          "name": "",
          "type": "address"
        },
        {
          "internalType": "uint256",
          "name": "",
          "type": "uint256"
        },
        {
          "internalType": "string",
          "name": "",
          "type": "string"
        },
        {
          "internalType": "address",
          "name": "",
          "type": "address"
        },
        {
          "internalType": "uint256",
          "name": "",
          "type": "uint256"
        },
        {
          "internalType": "uint256",
          "name": "",
          "type": "uint256"
        }
      ],
      "payable": false,
      "stateMutability": "view",
      "type": "function"
    },
    {
      "constant": true,
      "inputs": [],
      "name": "getEnqueryCount",
      "outputs": [
        {
          "internalType": "uint256",
          "name": "count",
          "type": "uint256"
        }
      ],
      "payable": false,
      "stateMutability": "view",
      "type": "function"
    },
    {
      "constant": true,
      "inputs": [],
      "name": "getBlocktime",
      "outputs": [
        {
          "internalType": "uint256",
          "name": "",
          "type": "uint256"
        }
      ],
      "payable": false,
      "stateMutability": "view",
      "type": "function"
    }
  ],
  "bytecode": "0x608060405234801561001057600080fd5b5061318d806100206000396000f3fe6080604052600436106100915760003560e01c80637db6b683116100595780637db6b683146102cf5780638b3d402e146103c0578063d8c5c2c514610728578063e29d20c1146109bd578063efaaf835146109e857610091565b80630501b79f14610096578063182825c7146100c15780631be0c6bc146101145780633c889e6f1461015a57806360ad239114610289575b600080fd5b3480156100a257600080fd5b506100ab610a3b565b6040518082815260200191505060405180910390f35b3480156100cd57600080fd5b506100fa600480360360208110156100e457600080fd5b8101908080359060200190929190505050610a43565b604051808215151515815260200191505060405180910390f35b6101406004803603602081101561012a57600080fd5b8101908080359060200190929190505050610d96565b604051808215151515815260200191505060405180910390f35b34801561016657600080fd5b506101936004803603602081101561017d57600080fd5b8101908080359060200190929190505050611079565b604051808773ffffffffffffffffffffffffffffffffffffffff1673ffffffffffffffffffffffffffffffffffffffff168152602001868152602001806020018573ffffffffffffffffffffffffffffffffffffffff1673ffffffffffffffffffffffffffffffffffffffff168152602001848152602001838152602001828103825286818151815260200191508051906020019080838360005b8381101561024957808201518184015260208101905061022e565b50505050905090810190601f1680156102765780820380516001836020036101000a031916815260200191505b5097505050505050505060405180910390f35b6102b56004803603602081101561029f57600080fd5b8101908080359060200190929190505050611602565b604051808215151515815260200191505060405180910390f35b6103a6600480360360808110156102e557600080fd5b810190808035906020019092919080359060200190929190803590602001909291908035906020019064010000000081111561032057600080fd5b82018360208201111561033257600080fd5b8035906020019184600183028401116401000000008311171561035457600080fd5b91908080601f016020809104026020016040519081016040528093929190818152602001838380828437600081840152601f19601f82011690508083019250505050505050919291929050505061198b565b604051808215151515815260200191505060405180910390f35b61071260048036036101608110156103d757600080fd5b8101908080359060200190929190803590602001909291908035906020019064010000000081111561040857600080fd5b82018360208201111561041a57600080fd5b8035906020019184600183028401116401000000008311171561043c57600080fd5b91908080601f016020809104026020016040519081016040528093929190818152602001838380828437600081840152601f19601f8201169050808301925050505050505091929192908035906020019064010000000081111561049f57600080fd5b8201836020820111156104b157600080fd5b803590602001918460018302840111640100000000831117156104d357600080fd5b91908080601f016020809104026020016040519081016040528093929190818152602001838380828437600081840152601f19601f8201169050808301925050505050505091929192908035906020019064010000000081111561053657600080fd5b82018360208201111561054857600080fd5b8035906020019184600183028401116401000000008311171561056a57600080fd5b91908080601f016020809104026020016040519081016040528093929190818152602001838380828437600081840152601f19601f82011690508083019250505050505050919291929080359060200190929190803590602001906401000000008111156105d757600080fd5b8201836020820111156105e957600080fd5b8035906020019184600183028401116401000000008311171561060b57600080fd5b91908080601f016020809104026020016040519081016040528093929190818152602001838380828437600081840152601f19601f8201169050808301925050505050505091929192908035906020019064010000000081111561066e57600080fd5b82018360208201111561068057600080fd5b803590602001918460018302840111640100000000831117156106a257600080fd5b91908080601f016020809104026020016040519081016040528093929190818152602001838380828437600081840152601f19601f820116905080830192505050505050509192919290803590602001909291908035906020019092919080359060200190929190505050612014565b6040518082815260200191505060405180910390f35b34801561073457600080fd5b506107616004803603602081101561074b57600080fd5b81019080803590602001909291905050506124cd565b604051808b81526020018a8152602001806020018060200180602001898152602001806020018060200188600481111561079757fe5b60ff16815260200187815260200186810386528e818151815260200191508051906020019080838360005b838110156107dd5780820151818401526020810190506107c2565b50505050905090810190601f16801561080a5780820380516001836020036101000a031916815260200191505b5086810385528d818151815260200191508051906020019080838360005b83811015610843578082015181840152602081019050610828565b50505050905090810190601f1680156108705780820380516001836020036101000a031916815260200191505b5086810384528c818151815260200191508051906020019080838360005b838110156108a957808201518184015260208101905061088e565b50505050905090810190601f1680156108d65780820380516001836020036101000a031916815260200191505b5086810383528a818151815260200191508051906020019080838360005b8381101561090f5780820151818401526020810190506108f4565b50505050905090810190601f16801561093c5780820380516001836020036101000a031916815260200191505b50868103825289818151815260200191508051906020019080838360005b8381101561097557808201518184015260208101905061095a565b50505050905090810190601f1680156109a25780820380516001836020036101000a031916815260200191505b509f5050505050505050505050505050505060405180910390f35b3480156109c957600080fd5b506109d2612a72565b6040518082815260200191505060405180910390f35b3480156109f457600080fd5b50610a2160048036036020811015610a0b57600080fd5b8101908080359060200190929190505050612a7e565b604051808215151515815260200191505060405180910390f35b600042905090565b600080805490508210610abe576040517f08c379a00000000000000000000000000000000000000000000000000000000081526004018080602001828103825260138152602001807f6e6f7420612076616c696420656e71756572790000000000000000000000000081525060200191505060405180910390fd5b60008281548110610acb57fe5b9060005260206000209060100201600c0160009054906101000a900473ffffffffffffffffffffffffffffffffffffffff1673ffffffffffffffffffffffffffffffffffffffff163373ffffffffffffffffffffffffffffffffffffffff1614610b9d576040517f08c379a00000000000000000000000000000000000000000000000000000000081526004018080602001828103825260208152602001807f6a7573742062757965722063616e20636c6f73652074686520656e717565727981525060200191505060405180910390fd5b4260008381548110610bab57fe5b90600052602060002090601002016001015410610c13576040517f08c379a000000000000000000000000000000000000000000000000000000000815260040180806020018281038252602481526020018061306a6024913960400191505060405180910390fd5b60006004811115610c2057fe5b60008381548110610c2d57fe5b906000526020600020906010020160080160009054906101000a900460ff166004811115610c5757fe5b14610cca576040517f08c379a00000000000000000000000000000000000000000000000000000000081526004018080602001828103825260208152602001807f54686520656e7175657279206973206e6f7420696e206f70656e20706861736581525060200191505060405180910390fd5b6000808381548110610cd857fe5b90600052602060002090601002016009016001018054600181600116156101000203166002900490501415610d4c57600460008381548110610d1657fe5b906000526020600020906010020160080160006101000a81548160ff02191690836004811115610d4257fe5b0217905550610d8d565b600160008381548110610d5b57fe5b906000526020600020906010020160080160006101000a81548160ff02191690836004811115610d8757fe5b02179055505b60019050919050565b600080805490508210610e11576040517f08c379a00000000000000000000000000000000000000000000000000000000081526004018080602001828103825260138152602001807f6e6f7420612076616c696420656e71756572790000000000000000000000000081525060200191505060405180910390fd5b60016004811115610e1e57fe5b60008381548110610e2b57fe5b906000526020600020906010020160080160009054906101000a900460ff166004811115610e5557fe5b14610ec8576040517f08c379a00000000000000000000000000000000000000000000000000000000081526004018080602001828103825260208152602001807f456e7175657279206d75737420626520696e2074686520656e6420737461746581525060200191505060405180910390fd5b60008281548110610ed557fe5b9060005260206000209060100201600c0160009054906101000a900473ffffffffffffffffffffffffffffffffffffffff1673ffffffffffffffffffffffffffffffffffffffff163373ffffffffffffffffffffffffffffffffffffffff1614610f8a576040517f08c379a000000000000000000000000000000000000000000000000000000000815260040180806020018281038252602a8152602001806130e4602a913960400191505060405180910390fd5b600260008381548110610f9957fe5b906000526020600020906010020160080160006101000a81548160ff02191690836004811115610fc557fe5b021790555060008281548110610fd757fe5b906000526020600020906010020160090160020160009054906101000a900473ffffffffffffffffffffffffffffffffffffffff1673ffffffffffffffffffffffffffffffffffffffff166108fc6000848154811061103257fe5b9060005260206000209060100201600e01549081150290604051600060405180830381858888f1935050505015801561106f573d6000803e3d6000fd5b5060019050919050565b6000806060600080600061108b612e24565b6000888154811061109857fe5b9060005260206000209060100201604051806101c00160405290816000820154815260200160018201548152602001600282018054600181600116156101000203166002900480601f01602080910402602001604051908101604052809291908181526020018280546001816001161561010002031660029004801561115f5780601f106111345761010080835404028352916020019161115f565b820191906000526020600020905b81548152906001019060200180831161114257829003601f168201915b50505050508152602001600382018054600181600116156101000203166002900480601f0160208091040260200160405190810160405280929190818152602001828054600181600116156101000203166002900480156112015780601f106111d657610100808354040283529160200191611201565b820191906000526020600020905b8154815290600101906020018083116111e457829003601f168201915b50505050508152602001600482018054600181600116156101000203166002900480601f0160208091040260200160405190810160405280929190818152602001828054600181600116156101000203166002900480156112a35780601f10611278576101008083540402835291602001916112a3565b820191906000526020600020905b81548152906001019060200180831161128657829003601f168201915b5050505050815260200160058201548152602001600682018054600181600116156101000203166002900480601f01602080910402602001604051908101604052809291908181526020018280546001816001161561010002031660029004801561134f5780601f106113245761010080835404028352916020019161134f565b820191906000526020600020905b81548152906001019060200180831161133257829003601f168201915b50505050508152602001600782018054600181600116156101000203166002900480601f0160208091040260200160405190810160405280929190818152602001828054600181600116156101000203166002900480156113f15780601f106113c6576101008083540402835291602001916113f1565b820191906000526020600020905b8154815290600101906020018083116113d457829003601f168201915b505050505081526020016008820160009054906101000a900460ff16600481111561141857fe5b600481111561142357fe5b81526020016009820160405180606001604052908160008201548152602001600182018054600181600116156101000203166002900480601f0160208091040260200160405190810160405280929190818152602001828054600181600116156101000203166002900480156114da5780601f106114af576101008083540402835291602001916114da565b820191906000526020600020905b8154815290600101906020018083116114bd57829003601f168201915b505050505081526020016002820160009054906101000a900473ffffffffffffffffffffffffffffffffffffffff1673ffffffffffffffffffffffffffffffffffffffff1673ffffffffffffffffffffffffffffffffffffffff16815250508152602001600c820160009054906101000a900473ffffffffffffffffffffffffffffffffffffffff1673ffffffffffffffffffffffffffffffffffffffff1673ffffffffffffffffffffffffffffffffffffffff168152602001600d8201548152602001600e8201548152602001600f820154815250509050806101200151604001518161012001516000015182610120015160200151836101400151846101800151856101a001518595508393508292509650965096509650965096505091939550919395565b60008080549050821061167d576040517f08c379a00000000000000000000000000000000000000000000000000000000081526004018080602001828103825260138152602001807f6e6f7420612076616c696420656e71756572790000000000000000000000000081525060200191505060405180910390fd5b6002600481111561168a57fe5b6000838154811061169757fe5b906000526020600020906010020160080160009054906101000a900460ff1660048111156116c157fe5b14611717576040517f08c379a000000000000000000000000000000000000000000000000000000000815260040180806020018281038252602181526020018061310e6021913960400191505060405180910390fd5b6000828154811061172457fe5b906000526020600020906010020160090160020160009054906101000a900473ffffffffffffffffffffffffffffffffffffffff1673ffffffffffffffffffffffffffffffffffffffff163373ffffffffffffffffffffffffffffffffffffffff16146117f9576040517f08c379a000000000000000000000000000000000000000000000000000000000815260040180806020018281038252601d8152602001807f6a7573742077696e6e65722063616e20646f20736574746c656d656e7400000081525060200191505060405180910390fd5b60036000838154811061180857fe5b906000526020600020906010020160080160006101000a81548160ff0219169083600481111561183457fe5b02179055506000828154811061184657fe5b906000526020600020906010020160090160020160009054906101000a900473ffffffffffffffffffffffffffffffffffffffff1673ffffffffffffffffffffffffffffffffffffffff166108fc600084815481106118a157fe5b9060005260206000209060100201600f01549081150290604051600060405180830381858888f193505050501580156118de573d6000803e3d6000fd5b50600082815481106118ec57fe5b9060005260206000209060100201600c0160009054906101000a900473ffffffffffffffffffffffffffffffffffffffff1673ffffffffffffffffffffffffffffffffffffffff166108fc6000848154811061194457fe5b9060005260206000209060100201600d01549081150290604051600060405180830381858888f19350505050158015611981573d6000803e3d6000fd5b5060019050919050565b6000806000805490508610611a08576040517f08c379a00000000000000000000000000000000000000000000000000000000081526004018080602001828103825260138152602001807f6e6f7420612076616c696420656e71756572790000000000000000000000000081525060200191505060405180910390fd5b60008681548110611a1557fe5b9060005260206000209060100201600c0160009054906101000a900473ffffffffffffffffffffffffffffffffffffffff1673ffffffffffffffffffffffffffffffffffffffff163373ffffffffffffffffffffffffffffffffffffffff161415611ae8576040517f08c379a00000000000000000000000000000000000000000000000000000000081526004018080602001828103825260168152602001807f4275796572206e6f7420616c6c6f7720746f206269640000000000000000000081525060200191505060405180910390fd5b8460008781548110611af657fe5b90600052602060002090601002016000015414611b7b576040517f08c379a00000000000000000000000000000000000000000000000000000000081526004018080602001828103825260168152602001807f6e6f7420612076616c696420656e7175657279206e6f0000000000000000000081525060200191505060405180910390fd5b60006004811115611b8857fe5b60008781548110611b9557fe5b906000526020600020906010020160080160009054906101000a900460ff166004811115611bbf57fe5b14611c32576040517f08c379a00000000000000000000000000000000000000000000000000000000081526004018080602001828103825260198152602001807f656e7175657279206e6f74206f70656e20616e79206d6f72650000000000000081525060200191505060405180910390fd5b600073ffffffffffffffffffffffffffffffffffffffff1660008781548110611c5757fe5b906000526020600020906010020160090160020160009054906101000a900473ffffffffffffffffffffffffffffffffffffffff1673ffffffffffffffffffffffffffffffffffffffff1614611d21578360008781548110611cb557fe5b90600052602060002090601002016009016000015411611d20576040517f08c379a000000000000000000000000000000000000000000000000000000000815260040180806020018281038252602e8152602001806130b6602e913960400191505060405180910390fd5b5b4260008781548110611d2f57fe5b90600052602060002090601002016001015411611db4576040517f08c379a00000000000000000000000000000000000000000000000000000000081526004018080602001828103825260168152602001807f656e717565727920686173206265656e20656e6465640000000000000000000081525060200191505060405180910390fd5b60008681548110611dc157fe5b9060005260206000209060100201600f015460008781548110611de057fe5b9060005260206000209060100201600e0154019050803414611e4d576040517f08c379a000000000000000000000000000000000000000000000000000000000815260040180806020018281038252602881526020018061308e6028913960400191505060405180910390fd5b600073ffffffffffffffffffffffffffffffffffffffff1660008781548110611e7257fe5b906000526020600020906010020160090160020160009054906101000a900473ffffffffffffffffffffffffffffffffffffffff1673ffffffffffffffffffffffffffffffffffffffff1614611f4b5760008681548110611ecf57fe5b906000526020600020906010020160090160020160009054906101000a900473ffffffffffffffffffffffffffffffffffffffff1673ffffffffffffffffffffffffffffffffffffffff166108fc829081150290604051600060405180830381858888f19350505050158015611f49573d6000803e3d6000fd5b505b8360008781548110611f5957fe5b9060005260206000209060100201600901600001819055508260008781548110611f7f57fe5b90600052602060002090601002016009016001019080519060200190611fa6929190612eba565b503360008781548110611fb557fe5b906000526020600020906010020160090160020160006101000a81548173ffffffffffffffffffffffffffffffffffffffff021916908373ffffffffffffffffffffffffffffffffffffffff1602179055506001915050949350505050565b600083341461206e576040517f08c379a000000000000000000000000000000000000000000000000000000000815260040180806020018281038252602a81526020018061312f602a913960400191505060405180910390fd5b612076612e24565b6000808054905090508d8260000181815250508c42018260200181815250508b82604001819052508a8260600181905250898260800181905250888260a0018181525050878260c00181905250868260e00181905250600082610120015160000181815250503382610140019073ffffffffffffffffffffffffffffffffffffffff16908173ffffffffffffffffffffffffffffffffffffffff16815250508582610160018181525050848261018001818152505083826101a00181815250506000829080600181540180825580915050906001820390600052602060002090601002016000909192909190915060008201518160000155602082015181600101556040820151816002019080519060200190612194929190612f3a565b5060608201518160030190805190602001906121b1929190612f3a565b5060808201518160040190805190602001906121ce929190612f3a565b5060a0820151816005015560c08201518160060190805190602001906121f5929190612f3a565b5060e0820151816007019080519060200190612212929190612f3a565b506101008201518160080160006101000a81548160ff0219169083600481111561223857fe5b02179055506101208201518160090160008201518160000155602082015181600101908051906020019061226d929190612f3a565b5060408201518160020160006101000a81548173ffffffffffffffffffffffffffffffffffffffff021916908373ffffffffffffffffffffffffffffffffffffffff160217905550505061014082015181600c0160006101000a81548173ffffffffffffffffffffffffffffffffffffffff021916908373ffffffffffffffffffffffffffffffffffffffff16021790555061016082015181600d015561018082015181600e01556101a082015181600f01555050507f13944ee836e447b3dffc5c1a265d6279df6aec095f66445f96d797fd4e47ccd4818f8f8f8f8e8e60405180888152602001878152602001868152602001806020018060200185815260200180602001848103845288818151815260200191508051906020019080838360005b838110156123ab578082015181840152602081019050612390565b50505050905090810190601f1680156123d85780820380516001836020036101000a031916815260200191505b50848103835287818151815260200191508051906020019080838360005b838110156124115780820151818401526020810190506123f6565b50505050905090810190601f16801561243e5780820380516001836020036101000a031916815260200191505b50848103825285818151815260200191508051906020019080838360005b8381101561247757808201518184015260208101905061245c565b50505050905090810190601f1680156124a45780820380516001836020036101000a031916815260200191505b509a505050505050505050505060405180910390a180925050509b9a5050505050505050505050565b600080606080606060006060806000806124e5612e24565b60008c815481106124f257fe5b9060005260206000209060100201604051806101c00160405290816000820154815260200160018201548152602001600282018054600181600116156101000203166002900480601f0160208091040260200160405190810160405280929190818152602001828054600181600116156101000203166002900480156125b95780601f1061258e576101008083540402835291602001916125b9565b820191906000526020600020905b81548152906001019060200180831161259c57829003601f168201915b50505050508152602001600382018054600181600116156101000203166002900480601f01602080910402602001604051908101604052809291908181526020018280546001816001161561010002031660029004801561265b5780601f106126305761010080835404028352916020019161265b565b820191906000526020600020905b81548152906001019060200180831161263e57829003601f168201915b50505050508152602001600482018054600181600116156101000203166002900480601f0160208091040260200160405190810160405280929190818152602001828054600181600116156101000203166002900480156126fd5780601f106126d2576101008083540402835291602001916126fd565b820191906000526020600020905b8154815290600101906020018083116126e057829003601f168201915b5050505050815260200160058201548152602001600682018054600181600116156101000203166002900480601f0160208091040260200160405190810160405280929190818152602001828054600181600116156101000203166002900480156127a95780601f1061277e576101008083540402835291602001916127a9565b820191906000526020600020905b81548152906001019060200180831161278c57829003601f168201915b50505050508152602001600782018054600181600116156101000203166002900480601f01602080910402602001604051908101604052809291908181526020018280546001816001161561010002031660029004801561284b5780601f106128205761010080835404028352916020019161284b565b820191906000526020600020905b81548152906001019060200180831161282e57829003601f168201915b505050505081526020016008820160009054906101000a900460ff16600481111561287257fe5b600481111561287d57fe5b81526020016009820160405180606001604052908160008201548152602001600182018054600181600116156101000203166002900480601f0160208091040260200160405190810160405280929190818152602001828054600181600116156101000203166002900480156129345780601f1061290957610100808354040283529160200191612934565b820191906000526020600020905b81548152906001019060200180831161291757829003601f168201915b505050505081526020016002820160009054906101000a900473ffffffffffffffffffffffffffffffffffffffff1673ffffffffffffffffffffffffffffffffffffffff1673ffffffffffffffffffffffffffffffffffffffff16815250508152602001600c820160009054906101000a900473ffffffffffffffffffffffffffffffffffffffff1673ffffffffffffffffffffffffffffffffffffffff1673ffffffffffffffffffffffffffffffffffffffff168152602001600d8201548152602001600e8201548152602001600f820154815250509050806000015181602001518260400151836060015184608001518560a001518660c001518760e001518861010001518961016001518797508696508595508393508292509a509a509a509a509a509a509a509a509a509a50509193959799509193959799565b60008080549050905090565b600080805490508210612af9576040517f08c379a00000000000000000000000000000000000000000000000000000000081526004018080602001828103825260138152602001807f6e6f7420612076616c696420656e71756572790000000000000000000000000081525060200191505060405180910390fd5b60008281548110612b0657fe5b9060005260206000209060100201600c0160009054906101000a900473ffffffffffffffffffffffffffffffffffffffff1673ffffffffffffffffffffffffffffffffffffffff163373ffffffffffffffffffffffffffffffffffffffff1614612bbb576040517f08c379a00000000000000000000000000000000000000000000000000000000081526004018080602001828103825260218152602001806130496021913960400191505060405180910390fd5b60006004811115612bc857fe5b60008381548110612bd557fe5b906000526020600020906010020160080160009054906101000a900460ff166004811115612bff57fe5b14612c72576040517f08c379a00000000000000000000000000000000000000000000000000000000081526004018080602001828103825260208152602001807f54686520656e7175657279206973206e6f7420696e206f70656e20706861736581525060200191505060405180910390fd5b600073ffffffffffffffffffffffffffffffffffffffff1660008381548110612c9757fe5b906000526020600020906010020160090160020160009054906101000a900473ffffffffffffffffffffffffffffffffffffffff1673ffffffffffffffffffffffffffffffffffffffff1614612d38576040517f08c379a00000000000000000000000000000000000000000000000000000000081526004018080602001828103825260328152602001806130176032913960400191505060405180910390fd5b600460008381548110612d4757fe5b906000526020600020906010020160080160006101000a81548160ff02191690836004811115612d7357fe5b021790555060008281548110612d8557fe5b9060005260206000209060100201600c0160009054906101000a900473ffffffffffffffffffffffffffffffffffffffff1673ffffffffffffffffffffffffffffffffffffffff166108fc60008481548110612ddd57fe5b9060005260206000209060100201600d01549081150290604051600060405180830381858888f19350505050158015612e1a573d6000803e3d6000fd5b5060019050919050565b604051806101c00160405280600081526020016000815260200160608152602001606081526020016060815260200160008152602001606081526020016060815260200160006004811115612e7557fe5b8152602001612e82612fba565b8152602001600073ffffffffffffffffffffffffffffffffffffffff1681526020016000815260200160008152602001600081525090565b828054600181600116156101000203166002900490600052602060002090601f016020900481019282601f10612efb57805160ff1916838001178555612f29565b82800160010185558215612f29579182015b82811115612f28578251825591602001919060010190612f0d565b5b509050612f369190612ff1565b5090565b828054600181600116156101000203166002900490600052602060002090601f016020900481019282601f10612f7b57805160ff1916838001178555612fa9565b82800160010185558215612fa9579182015b82811115612fa8578251825591602001919060010190612f8d565b5b509050612fb69190612ff1565b5090565b60405180606001604052806000815260200160608152602001600073ffffffffffffffffffffffffffffffffffffffff1681525090565b61301391905b8082111561300f576000816000905550600101612ff7565b5090565b9056fe4a75737420696e2063617365206f66206e6f20426964207468652050757263686173652063616e2062652063616e636c65646a7573742062757965722063616e2063616e636c652074686520656e717565727954686520656e71756572792068617320736f6d652074696d657320746f2066696e697368796f75206465706f736974206e6f7420657175616c20746865207265717569726520616d6f756e74796f75722071756f746174696f6e2070726963652067726561746572207468616e206c6f77657374206f666665726a7573742062757965722063616e2074656c6c207468617420726563656976656420746865206974656d456e7175657279206d75737420626520696e2072656365697665642073746174656275796572206465706f73697465206973206e6f74206173206d756368206173206d656e74696f6e6564a265627a7a72315820862586837b872e2cb548c3e5e2597ff6b93d2decce7fb9df7fd834df44de737d64736f6c63430005100032",
  "source": "// SPDX-License-Identifier: MIT\r\npragma solidity ^0.5.0;\r\n\r\n//pragma experimental ABIEncoderV2;\r\n\r\ncontract Purchase {\r\n    enum enqStatus {\r\n        created,\r\n        ended,\r\n        received,\r\n        paid,\r\n        cancle\r\n    }\r\n    struct Bid {\r\n        uint256 amount;\r\n        string supName;\r\n        address payable bidder;\r\n    }\r\n\r\n    struct Enquery {\r\n        uint256 enqno;\r\n        uint256 enqEndTime;\r\n        string partNo;\r\n        string partName;\r\n        string uom;\r\n        uint256 qty;\r\n        string buyerName;\r\n        string locationAddress;\r\n        enqStatus status;\r\n        Bid lowestBid;\r\n        address payable buyerAdd;\r\n        uint256 buyerDeposit;\r\n        uint256 sellerRcvDeposit;\r\n        uint256 sellerPaidDeposit;\r\n    }\r\n\r\n    Enquery[] enqueries;\r\n\r\n    event EnqueryCreated(\r\n        uint256 id,\r\n        uint256 enqno,\r\n        uint256 duration,\r\n        string partNo,\r\n        string partName,\r\n        uint256 qty,\r\n        string buyerName\r\n    );\r\n\r\n    function createEnquery(\r\n        uint256 enqno,\r\n        uint256 duration,\r\n        string memory partNo,\r\n        string memory partName,\r\n        string memory uom,\r\n        uint256 qty,\r\n        string memory buyerName,\r\n        string memory locationAddress,\r\n        uint256 buyerDeposit,\r\n        uint256 sellerRcvDeposit,\r\n        uint256 sellerPaidDeposit\r\n    ) public payable returns (uint256) {\r\n        require(\r\n            msg.value == buyerDeposit,\r\n            \"buyer deposite is not as much as mentioned\"\r\n        );\r\n        Enquery memory enquery;\r\n        uint256 id = enqueries.length;\r\n        enquery.enqno = enqno;\r\n        enquery.enqEndTime = block.timestamp + duration;\r\n        enquery.partNo = partNo;\r\n        enquery.partName = partName;\r\n        enquery.uom = uom;\r\n        enquery.qty = qty;\r\n        enquery.buyerName = buyerName;\r\n        enquery.locationAddress = locationAddress;\r\n        enquery.lowestBid.amount = 0;\r\n        enquery.buyerAdd = msg.sender;\r\n        enquery.buyerDeposit = buyerDeposit;\r\n        enquery.sellerRcvDeposit = sellerRcvDeposit;\r\n        enquery.sellerPaidDeposit = sellerPaidDeposit;\r\n        enqueries.push(enquery);\r\n        emit EnqueryCreated(\r\n            id,\r\n            enqno,\r\n            duration,\r\n            partNo,\r\n            partName,\r\n            qty,\r\n            buyerName\r\n        );\r\n        return id;\r\n    }\r\n\r\n    //  modifier notBuyer(uint _enqid) {\r\n    //       require(msg.sender != enqueries[_enqid].buyerAdd, \"Buyer not allow to bid\");\r\n    //       _;\r\n    //   }\r\n\r\n    function placeBid(\r\n        uint256 _enqid,\r\n        uint256 _enqno,\r\n        uint256 _amount,\r\n        string memory _supName\r\n    ) public payable returns (bool) {\r\n        //notBuyer(_enqid) returns (bool) {\r\n        uint256 refundVal;\r\n        require(_enqid < enqueries.length, \"not a valid enquery\");\r\n        require(\r\n            msg.sender != enqueries[_enqid].buyerAdd,\r\n            \"Buyer not allow to bid\"\r\n        );\r\n        require(enqueries[_enqid].enqno == _enqno, \"not a valid enquery no\");\r\n        require(\r\n            enqueries[_enqid].status == enqStatus.created,\r\n            \"enquery not open any more\"\r\n        );\r\n        if (enqueries[_enqid].lowestBid.bidder != address(0)) {\r\n            require(\r\n                enqueries[_enqid].lowestBid.amount > _amount,\r\n                \"your quotation price greater than lowest offer\"\r\n            );\r\n        }\r\n        require(\r\n            enqueries[_enqid].enqEndTime > block.timestamp,\r\n            \"enquery has been ended\"\r\n        );\r\n        refundVal =\r\n            enqueries[_enqid].sellerRcvDeposit +\r\n            enqueries[_enqid].sellerPaidDeposit;\r\n        require(\r\n            msg.value == refundVal,\r\n            \"you deposit not equal the require amount\"\r\n        );\r\n        if (enqueries[_enqid].lowestBid.bidder != address(0)) {\r\n            enqueries[_enqid].lowestBid.bidder.transfer(refundVal); // refund back the seller that not win the enquery\r\n        }\r\n        enqueries[_enqid].lowestBid.amount = _amount;\r\n        enqueries[_enqid].lowestBid.supName = _supName;\r\n        enqueries[_enqid].lowestBid.bidder = msg.sender;\r\n        return true;\r\n    }\r\n\r\n    function endEnquery(uint256 _enqid) public returns (bool) {\r\n        require(_enqid < enqueries.length, \"not a valid enquery\");\r\n        require(\r\n            msg.sender == enqueries[_enqid].buyerAdd,\r\n            \"just buyer can close the enquery\"\r\n        );\r\n        require(\r\n            enqueries[_enqid].enqEndTime < block.timestamp,\r\n            \"The enquery has some times to finish\"\r\n        );\r\n        require(\r\n            enqueries[_enqid].status == enqStatus.created,\r\n            \"The enquery is not in open phase\"\r\n        );\r\n\r\n        if (bytes(enqueries[_enqid].lowestBid.supName).length == 0) {\r\n            enqueries[_enqid].status = enqStatus.cancle;\r\n        } else {\r\n            enqueries[_enqid].status = enqStatus.ended;\r\n        }\r\n        return true;\r\n    }\r\n\r\n    function cancleEnquery(uint256 _enqid) public returns (bool) {\r\n        require(_enqid < enqueries.length, \"not a valid enquery\");\r\n        require(\r\n            //            address(uint160(msg.sender)) == enqueries[_enqid].buyerAdd,\r\n            msg.sender == enqueries[_enqid].buyerAdd,\r\n            \"just buyer can cancle the enquery\"\r\n        );\r\n        require(\r\n            enqueries[_enqid].status == enqStatus.created,\r\n            \"The enquery is not in open phase\"\r\n        );\r\n        require(\r\n            enqueries[_enqid].lowestBid.bidder == address(0),\r\n            \"Just in case of no Bid the Purchase can be cancled\"\r\n        );\r\n        enqueries[_enqid].status = enqStatus.cancle;\r\n        enqueries[_enqid].buyerAdd.transfer(enqueries[_enqid].buyerDeposit); // refund back buyer deposit\r\n        return true;\r\n    }\r\n\r\n    function receivedItem(uint256 _enqid) public payable returns (bool) {\r\n        require(_enqid < enqueries.length, \"not a valid enquery\");\r\n        require(\r\n            enqueries[_enqid].status == enqStatus.ended,\r\n            \"Enquery must be in the end state\"\r\n        );\r\n        require(\r\n            msg.sender == enqueries[_enqid].buyerAdd,\r\n            \"just buyer can tell that received the item\"\r\n        );\r\n        enqueries[_enqid].status = enqStatus.received;\r\n        enqueries[_enqid].lowestBid.bidder.transfer(\r\n            enqueries[_enqid].sellerRcvDeposit\r\n        ); // refund back the winner when buyer received the item\r\n        return true;\r\n    }\r\n\r\n    function settlement(uint256 _enqid) public payable returns (bool) {\r\n        require(_enqid < enqueries.length, \"not a valid enquery\");\r\n        require(\r\n            enqueries[_enqid].status == enqStatus.received,\r\n            \"Enquery must be in received state\"\r\n        );\r\n        require(\r\n            msg.sender == enqueries[_enqid].lowestBid.bidder,\r\n            \"just winner can do settlement\"\r\n        );\r\n        enqueries[_enqid].status = enqStatus.paid;\r\n        enqueries[_enqid].lowestBid.bidder.transfer(\r\n            enqueries[_enqid].sellerPaidDeposit\r\n        ); // refund back the winner and buyer when settlement has been done\r\n        enqueries[_enqid].buyerAdd.transfer(enqueries[_enqid].buyerDeposit); // refund back the winner and buyer when settlement has been done\r\n        return true;\r\n    }\r\n\r\n    function getEnquery(uint256 id)\r\n        public\r\n        view\r\n        returns (\r\n            uint256,\r\n            uint256,\r\n            string memory,\r\n            string memory,\r\n            string memory,\r\n            uint256,\r\n            string memory,\r\n            string memory,\r\n            enqStatus,\r\n            uint256\r\n        )\r\n    {\r\n        Enquery memory enquery = enqueries[id];\r\n        return (\r\n            enquery.enqno,\r\n            enquery.enqEndTime,\r\n            enquery.partNo,\r\n            enquery.partName,\r\n            enquery.uom,\r\n            enquery.qty,\r\n            enquery.buyerName,\r\n            enquery.locationAddress,\r\n            enquery.status,\r\n            enquery.buyerDeposit\r\n        );\r\n    }\r\n\r\n    function getBid(uint256 id)\r\n        public\r\n        view\r\n        returns (\r\n            address,\r\n            uint256,\r\n            string memory,\r\n            address,\r\n            uint256,\r\n            uint256\r\n        )\r\n    {\r\n        Enquery memory enquery = enqueries[id];\r\n        return (\r\n            enquery.lowestBid.bidder,\r\n            enquery.lowestBid.amount,\r\n            enquery.lowestBid.supName,\r\n            enquery.buyerAdd,\r\n            enquery.sellerRcvDeposit,\r\n            enquery.sellerPaidDeposit\r\n        );\r\n    }\r\n\r\n    function getEnqueryCount() public view returns (uint256 count) {\r\n        return (enqueries.length);\r\n    }\r\n\r\n    function getBlocktime() external view returns (uint256) {\r\n        return (block.timestamp);\r\n    }\r\n}\r\n",
  "sourcePath": "F:\\dapp\\purchase\\contracts\\Purchase.sol",
  "compiler": {
    "name": "solc",
    "version": "0.5.16+commit.9c3226ce.Emscripten.clang"
  },
  "schemaVersion": "3.4.9",
  "updatedAt": "2022-08-16T06:41:45.262Z",
  "networkType": "ethereum",
  "devdoc": {
    "methods": {}
  },
  "userdoc": {
    "methods": {}
  }
}