{
  "contractName": "Purchase",
  "abi": [
    {
      "anonymous": false,
      "inputs": [
        {
          "indexed": false,
          "internalType": "uint256",
          "name": "enqno",
          "type": "uint256"
        },
        {
          "indexed": false,
          "internalType": "uint256",
          "name": "duration",
          "type": "uint256"
        },
        {
          "indexed": false,
          "internalType": "string",
          "name": "partNo",
          "type": "string"
        },
        {
          "indexed": false,
          "internalType": "string",
          "name": "partName",
          "type": "string"
        },
        {
          "indexed": false,
          "internalType": "uint256",
          "name": "qty",
          "type": "uint256"
        },
        {
          "indexed": false,
          "internalType": "string",
          "name": "buyerName",
          "type": "string"
        }
      ],
      "name": "EnqueryCreated",
      "type": "event"
    },
    {
      "constant": false,
      "inputs": [
        {
          "internalType": "uint256",
          "name": "enqno",
          "type": "uint256"
        },
        {
          "internalType": "uint256",
          "name": "duration",
          "type": "uint256"
        },
        {
          "internalType": "string",
          "name": "partNo",
          "type": "string"
        },
        {
          "internalType": "string",
          "name": "partName",
          "type": "string"
        },
        {
          "internalType": "string",
          "name": "uom",
          "type": "string"
        },
        {
          "internalType": "uint256",
          "name": "qty",
          "type": "uint256"
        },
        {
          "internalType": "string",
          "name": "buyerName",
          "type": "string"
        },
        {
          "internalType": "string",
          "name": "locationAddress",
          "type": "string"
        },
        {
          "internalType": "uint256",
          "name": "buyerDeposit",
          "type": "uint256"
        },
        {
          "internalType": "uint256",
          "name": "sellerRcvDeposit",
          "type": "uint256"
        },
        {
          "internalType": "uint256",
          "name": "sellerPaidDeposit",
          "type": "uint256"
        }
      ],
      "name": "createEnquery",
      "outputs": [
        {
          "internalType": "uint256",
          "name": "",
          "type": "uint256"
        }
      ],
      "payable": true,
      "stateMutability": "payable",
      "type": "function"
    },
    {
      "constant": false,
      "inputs": [
        {
          "internalType": "uint256",
          "name": "_enqid",
          "type": "uint256"
        },
        {
          "internalType": "uint256",
          "name": "_enqno",
          "type": "uint256"
        },
        {
          "internalType": "uint256",
          "name": "_amount",
          "type": "uint256"
        },
        {
          "internalType": "string",
          "name": "_supName",
          "type": "string"
        }
      ],
      "name": "placeBid",
      "outputs": [
        {
          "internalType": "bool",
          "name": "",
          "type": "bool"
        }
      ],
      "payable": true,
      "stateMutability": "payable",
      "type": "function"
    },
    {
      "constant": false,
      "inputs": [
        {
          "internalType": "uint256",
          "name": "_enqid",
          "type": "uint256"
        }
      ],
      "name": "endEnquery",
      "outputs": [
        {
          "internalType": "bool",
          "name": "",
          "type": "bool"
        }
      ],
      "payable": false,
      "stateMutability": "nonpayable",
      "type": "function"
    },
    {
      "constant": false,
      "inputs": [
        {
          "internalType": "uint256",
          "name": "_enqid",
          "type": "uint256"
        }
      ],
      "name": "receivedItem",
      "outputs": [
        {
          "internalType": "bool",
          "name": "",
          "type": "bool"
        }
      ],
      "payable": true,
      "stateMutability": "payable",
      "type": "function"
    },
    {
      "constant": false,
      "inputs": [
        {
          "internalType": "uint256",
          "name": "_enqid",
          "type": "uint256"
        }
      ],
      "name": "settlement",
      "outputs": [
        {
          "internalType": "bool",
          "name": "",
          "type": "bool"
        }
      ],
      "payable": true,
      "stateMutability": "payable",
      "type": "function"
    },
    {
      "constant": true,
      "inputs": [
        {
          "internalType": "uint256",
          "name": "id",
          "type": "uint256"
        }
      ],
      "name": "getEnquery",
      "outputs": [
        {
          "internalType": "uint256",
          "name": "",
          "type": "uint256"
        },
        {
          "internalType": "uint256",
          "name": "",
          "type": "uint256"
        },
        {
          "internalType": "string",
          "name": "",
          "type": "string"
        },
        {
          "internalType": "string",
          "name": "",
          "type": "string"
        },
        {
          "internalType": "string",
          "name": "",
          "type": "string"
        },
        {
          "internalType": "uint256",
          "name": "",
          "type": "uint256"
        },
        {
          "internalType": "string",
          "name": "",
          "type": "string"
        },
        {
          "internalType": "string",
          "name": "",
          "type": "string"
        },
        {
          "internalType": "enum Purchase.enqStatus",
          "name": "",
          "type": "uint8"
        },
        {
          "internalType": "uint256",
          "name": "",
          "type": "uint256"
        }
      ],
      "payable": false,
      "stateMutability": "view",
      "type": "function"
    },
    {
      "constant": true,
      "inputs": [
        {
          "internalType": "uint256",
          "name": "id",
          "type": "uint256"
        }
      ],
      "name": "getBid",
      "outputs": [
        {
          "internalType": "address",
          "name": "",
          "type": "address"
        },
        {
          "internalType": "uint256",
          "name": "",
          "type": "uint256"
        },
        {
          "internalType": "string",
          "name": "",
          "type": "string"
        },
        {
          "internalType": "address",
          "name": "",
          "type": "address"
        },
        {
          "internalType": "uint256",
          "name": "",
          "type": "uint256"
        },
        {
          "internalType": "uint256",
          "name": "",
          "type": "uint256"
        }
      ],
      "payable": false,
      "stateMutability": "view",
      "type": "function"
    },
    {
      "constant": true,
      "inputs": [],
      "name": "getEnqueryCount",
      "outputs": [
        {
          "internalType": "uint256",
          "name": "count",
          "type": "uint256"
        }
      ],
      "payable": false,
      "stateMutability": "view",
      "type": "function"
    },
    {
      "constant": true,
      "inputs": [],
      "name": "getBlocktime",
      "outputs": [
        {
          "internalType": "uint256",
          "name": "",
          "type": "uint256"
        }
      ],
      "payable": false,
      "stateMutability": "view",
      "type": "function"
    }
  ],
  "bytecode": "0x608060405234801561001057600080fd5b50612bf4806100206000396000f3fe6080604052600436106100865760003560e01c806360ad23911161005957806360ad23911461027e5780637db6b683146102c45780638b3d402e146103b5578063d8c5c2c51461071d578063e29d20c1146109b257610086565b80630501b79f1461008b578063182825c7146100b65780631be0c6bc146101095780633c889e6f1461014f575b600080fd5b34801561009757600080fd5b506100a06109dd565b6040518082815260200191505060405180910390f35b3480156100c257600080fd5b506100ef600480360360208110156100d957600080fd5b81019080803590602001909291905050506109e5565b604051808215151515815260200191505060405180910390f35b6101356004803603602081101561011f57600080fd5b8101908080359060200190929190505050610bfe565b604051808215151515815260200191505060405180910390f35b34801561015b57600080fd5b506101886004803603602081101561017257600080fd5b8101908080359060200190929190505050610ee1565b604051808773ffffffffffffffffffffffffffffffffffffffff1673ffffffffffffffffffffffffffffffffffffffff168152602001868152602001806020018573ffffffffffffffffffffffffffffffffffffffff1673ffffffffffffffffffffffffffffffffffffffff168152602001848152602001838152602001828103825286818151815260200191508051906020019080838360005b8381101561023e578082015181840152602081019050610223565b50505050905090810190601f16801561026b5780820380516001836020036101000a031916815260200191505b5097505050505050505060405180910390f35b6102aa6004803603602081101561029457600080fd5b810190808035906020019092919050505061146a565b604051808215151515815260200191505060405180910390f35b61039b600480360360808110156102da57600080fd5b810190808035906020019092919080359060200190929190803590602001909291908035906020019064010000000081111561031557600080fd5b82018360208201111561032757600080fd5b8035906020019184600183028401116401000000008311171561034957600080fd5b91908080601f016020809104026020016040519081016040528093929190818152602001838380828437600081840152601f19601f8201169050808301925050505050505091929192905050506117f3565b604051808215151515815260200191505060405180910390f35b61070760048036036101608110156103cc57600080fd5b810190808035906020019092919080359060200190929190803590602001906401000000008111156103fd57600080fd5b82018360208201111561040f57600080fd5b8035906020019184600183028401116401000000008311171561043157600080fd5b91908080601f016020809104026020016040519081016040528093929190818152602001838380828437600081840152601f19601f8201169050808301925050505050505091929192908035906020019064010000000081111561049457600080fd5b8201836020820111156104a657600080fd5b803590602001918460018302840111640100000000831117156104c857600080fd5b91908080601f016020809104026020016040519081016040528093929190818152602001838380828437600081840152601f19601f8201169050808301925050505050505091929192908035906020019064010000000081111561052b57600080fd5b82018360208201111561053d57600080fd5b8035906020019184600183028401116401000000008311171561055f57600080fd5b91908080601f016020809104026020016040519081016040528093929190818152602001838380828437600081840152601f19601f82011690508083019250505050505050919291929080359060200190929190803590602001906401000000008111156105cc57600080fd5b8201836020820111156105de57600080fd5b8035906020019184600183028401116401000000008311171561060057600080fd5b91908080601f016020809104026020016040519081016040528093929190818152602001838380828437600081840152601f19601f8201169050808301925050505050505091929192908035906020019064010000000081111561066357600080fd5b82018360208201111561067557600080fd5b8035906020019184600183028401116401000000008311171561069757600080fd5b91908080601f016020809104026020016040519081016040528093929190818152602001838380828437600081840152601f19601f820116905080830192505050505050509192919290803590602001909291908035906020019092919080359060200190929190505050611e7c565b6040518082815260200191505060405180910390f35b34801561072957600080fd5b506107566004803603602081101561074057600080fd5b810190808035906020019092919050505061232d565b604051808b81526020018a8152602001806020018060200180602001898152602001806020018060200188600381111561078c57fe5b60ff16815260200187815260200186810386528e818151815260200191508051906020019080838360005b838110156107d25780820151818401526020810190506107b7565b50505050905090810190601f1680156107ff5780820380516001836020036101000a031916815260200191505b5086810385528d818151815260200191508051906020019080838360005b8381101561083857808201518184015260208101905061081d565b50505050905090810190601f1680156108655780820380516001836020036101000a031916815260200191505b5086810384528c818151815260200191508051906020019080838360005b8381101561089e578082015181840152602081019050610883565b50505050905090810190601f1680156108cb5780820380516001836020036101000a031916815260200191505b5086810383528a818151815260200191508051906020019080838360005b838110156109045780820151818401526020810190506108e9565b50505050905090810190601f1680156109315780820380516001836020036101000a031916815260200191505b50868103825289818151815260200191508051906020019080838360005b8381101561096a57808201518184015260208101905061094f565b50505050905090810190601f1680156109975780820380516001836020036101000a031916815260200191505b509f5050505050505050505050505050505060405180910390f35b3480156109be57600080fd5b506109c76128d2565b6040518082815260200191505060405180910390f35b600042905090565b600080805490508210610a60576040517f08c379a00000000000000000000000000000000000000000000000000000000081526004018080602001828103825260138152602001807f6e6f7420612076616c696420656e71756572790000000000000000000000000081525060200191505060405180910390fd5b60008281548110610a6d57fe5b9060005260206000209060100201600c0160009054906101000a900473ffffffffffffffffffffffffffffffffffffffff1673ffffffffffffffffffffffffffffffffffffffff163373ffffffffffffffffffffffffffffffffffffffff1614610b3f576040517f08c379a00000000000000000000000000000000000000000000000000000000081526004018080602001828103825260208152602001807f6a7573742062757965722063616e20636c6f73652074686520656e717565727981525060200191505060405180910390fd5b4260008381548110610b4d57fe5b90600052602060002090601002016001015410610bb5576040517f08c379a0000000000000000000000000000000000000000000000000000000008152600401808060200182810382526024815260200180612ad16024913960400191505060405180910390fd5b600160008381548110610bc457fe5b906000526020600020906010020160080160006101000a81548160ff02191690836003811115610bf057fe5b021790555060019050919050565b600080805490508210610c79576040517f08c379a00000000000000000000000000000000000000000000000000000000081526004018080602001828103825260138152602001807f6e6f7420612076616c696420656e71756572790000000000000000000000000081525060200191505060405180910390fd5b60016003811115610c8657fe5b60008381548110610c9357fe5b906000526020600020906010020160080160009054906101000a900460ff166003811115610cbd57fe5b14610d30576040517f08c379a00000000000000000000000000000000000000000000000000000000081526004018080602001828103825260208152602001807f456e7175657279206d75737420626520696e2074686520656e6420737461746581525060200191505060405180910390fd5b60008281548110610d3d57fe5b9060005260206000209060100201600c0160009054906101000a900473ffffffffffffffffffffffffffffffffffffffff1673ffffffffffffffffffffffffffffffffffffffff163373ffffffffffffffffffffffffffffffffffffffff1614610df2576040517f08c379a000000000000000000000000000000000000000000000000000000000815260040180806020018281038252602a815260200180612b4b602a913960400191505060405180910390fd5b600260008381548110610e0157fe5b906000526020600020906010020160080160006101000a81548160ff02191690836003811115610e2d57fe5b021790555060008281548110610e3f57fe5b906000526020600020906010020160090160020160009054906101000a900473ffffffffffffffffffffffffffffffffffffffff1673ffffffffffffffffffffffffffffffffffffffff166108fc60008481548110610e9a57fe5b9060005260206000209060100201600e01549081150290604051600060405180830381858888f19350505050158015610ed7573d6000803e3d6000fd5b5060019050919050565b60008060606000806000610ef36128de565b60008881548110610f0057fe5b9060005260206000209060100201604051806101c00160405290816000820154815260200160018201548152602001600282018054600181600116156101000203166002900480601f016020809104026020016040519081016040528092919081815260200182805460018160011615610100020316600290048015610fc75780601f10610f9c57610100808354040283529160200191610fc7565b820191906000526020600020905b815481529060010190602001808311610faa57829003601f168201915b50505050508152602001600382018054600181600116156101000203166002900480601f0160208091040260200160405190810160405280929190818152602001828054600181600116156101000203166002900480156110695780601f1061103e57610100808354040283529160200191611069565b820191906000526020600020905b81548152906001019060200180831161104c57829003601f168201915b50505050508152602001600482018054600181600116156101000203166002900480601f01602080910402602001604051908101604052809291908181526020018280546001816001161561010002031660029004801561110b5780601f106110e05761010080835404028352916020019161110b565b820191906000526020600020905b8154815290600101906020018083116110ee57829003601f168201915b5050505050815260200160058201548152602001600682018054600181600116156101000203166002900480601f0160208091040260200160405190810160405280929190818152602001828054600181600116156101000203166002900480156111b75780601f1061118c576101008083540402835291602001916111b7565b820191906000526020600020905b81548152906001019060200180831161119a57829003601f168201915b50505050508152602001600782018054600181600116156101000203166002900480601f0160208091040260200160405190810160405280929190818152602001828054600181600116156101000203166002900480156112595780601f1061122e57610100808354040283529160200191611259565b820191906000526020600020905b81548152906001019060200180831161123c57829003601f168201915b505050505081526020016008820160009054906101000a900460ff16600381111561128057fe5b600381111561128b57fe5b81526020016009820160405180606001604052908160008201548152602001600182018054600181600116156101000203166002900480601f0160208091040260200160405190810160405280929190818152602001828054600181600116156101000203166002900480156113425780601f1061131757610100808354040283529160200191611342565b820191906000526020600020905b81548152906001019060200180831161132557829003601f168201915b505050505081526020016002820160009054906101000a900473ffffffffffffffffffffffffffffffffffffffff1673ffffffffffffffffffffffffffffffffffffffff1673ffffffffffffffffffffffffffffffffffffffff16815250508152602001600c820160009054906101000a900473ffffffffffffffffffffffffffffffffffffffff1673ffffffffffffffffffffffffffffffffffffffff1673ffffffffffffffffffffffffffffffffffffffff168152602001600d8201548152602001600e8201548152602001600f820154815250509050806101200151604001518161012001516000015182610120015160200151836101400151846101800151856101a001518595508393508292509650965096509650965096505091939550919395565b6000808054905082106114e5576040517f08c379a00000000000000000000000000000000000000000000000000000000081526004018080602001828103825260138152602001807f6e6f7420612076616c696420656e71756572790000000000000000000000000081525060200191505060405180910390fd5b600260038111156114f257fe5b600083815481106114ff57fe5b906000526020600020906010020160080160009054906101000a900460ff16600381111561152957fe5b1461157f576040517f08c379a0000000000000000000000000000000000000000000000000000000008152600401808060200182810382526021815260200180612b756021913960400191505060405180910390fd5b6000828154811061158c57fe5b906000526020600020906010020160090160020160009054906101000a900473ffffffffffffffffffffffffffffffffffffffff1673ffffffffffffffffffffffffffffffffffffffff163373ffffffffffffffffffffffffffffffffffffffff1614611661576040517f08c379a000000000000000000000000000000000000000000000000000000000815260040180806020018281038252601d8152602001807f6a7573742077696e6e65722063616e20646f20736574746c656d656e7400000081525060200191505060405180910390fd5b60036000838154811061167057fe5b906000526020600020906010020160080160006101000a81548160ff0219169083600381111561169c57fe5b0217905550600082815481106116ae57fe5b906000526020600020906010020160090160020160009054906101000a900473ffffffffffffffffffffffffffffffffffffffff1673ffffffffffffffffffffffffffffffffffffffff166108fc6000848154811061170957fe5b9060005260206000209060100201600f01549081150290604051600060405180830381858888f19350505050158015611746573d6000803e3d6000fd5b506000828154811061175457fe5b9060005260206000209060100201600c0160009054906101000a900473ffffffffffffffffffffffffffffffffffffffff1673ffffffffffffffffffffffffffffffffffffffff166108fc600084815481106117ac57fe5b9060005260206000209060100201600d01549081150290604051600060405180830381858888f193505050501580156117e9573d6000803e3d6000fd5b5060019050919050565b6000806000805490508610611870576040517f08c379a00000000000000000000000000000000000000000000000000000000081526004018080602001828103825260138152602001807f6e6f7420612076616c696420656e71756572790000000000000000000000000081525060200191505060405180910390fd5b6000868154811061187d57fe5b9060005260206000209060100201600c0160009054906101000a900473ffffffffffffffffffffffffffffffffffffffff1673ffffffffffffffffffffffffffffffffffffffff163373ffffffffffffffffffffffffffffffffffffffff161415611950576040517f08c379a00000000000000000000000000000000000000000000000000000000081526004018080602001828103825260168152602001807f4275796572206e6f7420616c6c6f7720746f206269640000000000000000000081525060200191505060405180910390fd5b846000878154811061195e57fe5b906000526020600020906010020160000154146119e3576040517f08c379a00000000000000000000000000000000000000000000000000000000081526004018080602001828103825260168152602001807f6e6f7420612076616c696420656e7175657279206e6f0000000000000000000081525060200191505060405180910390fd5b600060038111156119f057fe5b600087815481106119fd57fe5b906000526020600020906010020160080160009054906101000a900460ff166003811115611a2757fe5b14611a9a576040517f08c379a00000000000000000000000000000000000000000000000000000000081526004018080602001828103825260198152602001807f656e7175657279206e6f74206f70656e20616e79206d6f72650000000000000081525060200191505060405180910390fd5b600073ffffffffffffffffffffffffffffffffffffffff1660008781548110611abf57fe5b906000526020600020906010020160090160020160009054906101000a900473ffffffffffffffffffffffffffffffffffffffff1673ffffffffffffffffffffffffffffffffffffffff1614611b89578360008781548110611b1d57fe5b90600052602060002090601002016009016000015411611b88576040517f08c379a000000000000000000000000000000000000000000000000000000000815260040180806020018281038252602e815260200180612b1d602e913960400191505060405180910390fd5b5b4260008781548110611b9757fe5b90600052602060002090601002016001015411611c1c576040517f08c379a00000000000000000000000000000000000000000000000000000000081526004018080602001828103825260168152602001807f656e717565727920686173206265656e20656e6465640000000000000000000081525060200191505060405180910390fd5b60008681548110611c2957fe5b9060005260206000209060100201600f015460008781548110611c4857fe5b9060005260206000209060100201600e0154019050803414611cb5576040517f08c379a0000000000000000000000000000000000000000000000000000000008152600401808060200182810382526028815260200180612af56028913960400191505060405180910390fd5b600073ffffffffffffffffffffffffffffffffffffffff1660008781548110611cda57fe5b906000526020600020906010020160090160020160009054906101000a900473ffffffffffffffffffffffffffffffffffffffff1673ffffffffffffffffffffffffffffffffffffffff1614611db35760008681548110611d3757fe5b906000526020600020906010020160090160020160009054906101000a900473ffffffffffffffffffffffffffffffffffffffff1673ffffffffffffffffffffffffffffffffffffffff166108fc829081150290604051600060405180830381858888f19350505050158015611db1573d6000803e3d6000fd5b505b8360008781548110611dc157fe5b9060005260206000209060100201600901600001819055508260008781548110611de757fe5b90600052602060002090601002016009016001019080519060200190611e0e929190612974565b503360008781548110611e1d57fe5b906000526020600020906010020160090160020160006101000a81548173ffffffffffffffffffffffffffffffffffffffff021916908373ffffffffffffffffffffffffffffffffffffffff1602179055506001915050949350505050565b6000833414611ed6576040517f08c379a000000000000000000000000000000000000000000000000000000000815260040180806020018281038252602a815260200180612b96602a913960400191505060405180910390fd5b611ede6128de565b6000808054905090508d8260000181815250508c42018260200181815250508b82604001819052508a8260600181905250898260800181905250888260a0018181525050878260c00181905250868260e00181905250600082610120015160000181815250503382610140019073ffffffffffffffffffffffffffffffffffffffff16908173ffffffffffffffffffffffffffffffffffffffff16815250508582610160018181525050848261018001818152505083826101a00181815250506000829080600181540180825580915050906001820390600052602060002090601002016000909192909190915060008201518160000155602082015181600101556040820151816002019080519060200190611ffc9291906129f4565b5060608201518160030190805190602001906120199291906129f4565b5060808201518160040190805190602001906120369291906129f4565b5060a0820151816005015560c082015181600601908051906020019061205d9291906129f4565b5060e082015181600701908051906020019061207a9291906129f4565b506101008201518160080160006101000a81548160ff021916908360038111156120a057fe5b0217905550610120820151816009016000820151816000015560208201518160010190805190602001906120d59291906129f4565b5060408201518160020160006101000a81548173ffffffffffffffffffffffffffffffffffffffff021916908373ffffffffffffffffffffffffffffffffffffffff160217905550505061014082015181600c0160006101000a81548173ffffffffffffffffffffffffffffffffffffffff021916908373ffffffffffffffffffffffffffffffffffffffff16021790555061016082015181600d015561018082015181600e01556101a082015181600f01555050507f233c0ed85fe599fe828012acf01982d4af7c7157747b36cd4f7e281dac0d49848e8e8e8e8d8d60405180878152602001868152602001806020018060200185815260200180602001848103845288818151815260200191508051906020019080838360005b8381101561220c5780820151818401526020810190506121f1565b50505050905090810190601f1680156122395780820380516001836020036101000a031916815260200191505b50848103835287818151815260200191508051906020019080838360005b83811015612272578082015181840152602081019050612257565b50505050905090810190601f16801561229f5780820380516001836020036101000a031916815260200191505b50848103825285818151815260200191508051906020019080838360005b838110156122d85780820151818401526020810190506122bd565b50505050905090810190601f1680156123055780820380516001836020036101000a031916815260200191505b50995050505050505050505060405180910390a180925050509b9a5050505050505050505050565b600080606080606060006060806000806123456128de565b60008c8154811061235257fe5b9060005260206000209060100201604051806101c00160405290816000820154815260200160018201548152602001600282018054600181600116156101000203166002900480601f0160208091040260200160405190810160405280929190818152602001828054600181600116156101000203166002900480156124195780601f106123ee57610100808354040283529160200191612419565b820191906000526020600020905b8154815290600101906020018083116123fc57829003601f168201915b50505050508152602001600382018054600181600116156101000203166002900480601f0160208091040260200160405190810160405280929190818152602001828054600181600116156101000203166002900480156124bb5780601f10612490576101008083540402835291602001916124bb565b820191906000526020600020905b81548152906001019060200180831161249e57829003601f168201915b50505050508152602001600482018054600181600116156101000203166002900480601f01602080910402602001604051908101604052809291908181526020018280546001816001161561010002031660029004801561255d5780601f106125325761010080835404028352916020019161255d565b820191906000526020600020905b81548152906001019060200180831161254057829003601f168201915b5050505050815260200160058201548152602001600682018054600181600116156101000203166002900480601f0160208091040260200160405190810160405280929190818152602001828054600181600116156101000203166002900480156126095780601f106125de57610100808354040283529160200191612609565b820191906000526020600020905b8154815290600101906020018083116125ec57829003601f168201915b50505050508152602001600782018054600181600116156101000203166002900480601f0160208091040260200160405190810160405280929190818152602001828054600181600116156101000203166002900480156126ab5780601f10612680576101008083540402835291602001916126ab565b820191906000526020600020905b81548152906001019060200180831161268e57829003601f168201915b505050505081526020016008820160009054906101000a900460ff1660038111156126d257fe5b60038111156126dd57fe5b81526020016009820160405180606001604052908160008201548152602001600182018054600181600116156101000203166002900480601f0160208091040260200160405190810160405280929190818152602001828054600181600116156101000203166002900480156127945780601f1061276957610100808354040283529160200191612794565b820191906000526020600020905b81548152906001019060200180831161277757829003601f168201915b505050505081526020016002820160009054906101000a900473ffffffffffffffffffffffffffffffffffffffff1673ffffffffffffffffffffffffffffffffffffffff1673ffffffffffffffffffffffffffffffffffffffff16815250508152602001600c820160009054906101000a900473ffffffffffffffffffffffffffffffffffffffff1673ffffffffffffffffffffffffffffffffffffffff1673ffffffffffffffffffffffffffffffffffffffff168152602001600d8201548152602001600e8201548152602001600f820154815250509050806000015181602001518260400151836060015184608001518560a001518660c001518760e001518861010001518961016001518797508696508595508393508292509a509a509a509a509a509a509a509a509a509a50509193959799509193959799565b60008080549050905090565b604051806101c0016040528060008152602001600081526020016060815260200160608152602001606081526020016000815260200160608152602001606081526020016000600381111561292f57fe5b815260200161293c612a74565b8152602001600073ffffffffffffffffffffffffffffffffffffffff1681526020016000815260200160008152602001600081525090565b828054600181600116156101000203166002900490600052602060002090601f016020900481019282601f106129b557805160ff19168380011785556129e3565b828001600101855582156129e3579182015b828111156129e25782518255916020019190600101906129c7565b5b5090506129f09190612aab565b5090565b828054600181600116156101000203166002900490600052602060002090601f016020900481019282601f10612a3557805160ff1916838001178555612a63565b82800160010185558215612a63579182015b82811115612a62578251825591602001919060010190612a47565b5b509050612a709190612aab565b5090565b60405180606001604052806000815260200160608152602001600073ffffffffffffffffffffffffffffffffffffffff1681525090565b612acd91905b80821115612ac9576000816000905550600101612ab1565b5090565b9056fe54686520656e71756572792068617320736f6d652074696d657320746f2066696e697368796f75206465706f736974206e6f7420657175616c20746865207265717569726520616d6f756e74796f75722071756f746174696f6e2070726963652067726561746572207468616e206c6f77657374206f666665726a7573742062757965722063616e2074656c6c207468617420726563656976656420746865206974656d456e7175657279206d75737420626520696e2072656365697665642073746174656275796572206465706f73697465206973206e6f74206173206d756368206173206d656e74696f6e6564a265627a7a72315820c7146e313ac28e1ed034b0632010d7a470fc089183a5b72cc063e27663cf313564736f6c63430005100032",
  "source": "// SPDX-License-Identifier: MIT\r\npragma solidity >=0.4.22 <0.9.0;\r\n//pragma experimental ABIEncoderV2;\r\n\r\ncontract Purchase {\r\n    enum enqStatus {created, ended, received, paid}\r\n    struct Bid {\r\n        uint256 amount;\r\n        string supName;\r\n        address payable bidder;\r\n    }\r\n\r\n    struct Enquery {\r\n        uint256 enqno;\r\n        uint256 enqEndTime;\r\n        string partNo;\r\n        string partName;\r\n        string uom;\r\n        uint256 qty;\r\n        string buyerName;\r\n        string locationAddress;\r\n        enqStatus status;\r\n        Bid lowestBid;\r\n        address payable buyerAdd;\r\n        uint256 buyerDeposit;\r\n        uint256 sellerRcvDeposit;\r\n        uint256 sellerPaidDeposit;\r\n    }\r\n\r\n    Enquery[] enqueries;\r\n\r\n    event EnqueryCreated(\r\n        uint256 enqno,\r\n        uint256 duration,\r\n        string partNo,\r\n        string partName,\r\n        uint256 qty,\r\n        string buyerName\r\n    );   \r\n\r\n    function createEnquery(\r\n        uint256 enqno,\r\n        uint256 duration,\r\n        string memory partNo,\r\n        string memory partName,\r\n        string memory uom,\r\n        uint256 qty,\r\n        string memory buyerName,\r\n        string memory locationAddress,\r\n        uint256 buyerDeposit,\r\n        uint256 sellerRcvDeposit,\r\n        uint256 sellerPaidDeposit\r\n    ) public payable returns (uint256) {\r\n        require(\r\n            msg.value == buyerDeposit,\r\n            \"buyer deposite is not as much as mentioned\"\r\n        );\r\n        Enquery memory enquery;\r\n        uint256 id = enqueries.length;\r\n        enquery.enqno = enqno;\r\n        enquery.enqEndTime = block.timestamp + duration;\r\n        enquery.partNo = partNo;\r\n        enquery.partName = partName;\r\n        enquery.uom = uom;\r\n        enquery.qty = qty;\r\n        enquery.buyerName = buyerName;\r\n        enquery.locationAddress = locationAddress;\r\n        enquery.lowestBid.amount = 0;\r\n        enquery.buyerAdd = msg.sender;\r\n        enquery.buyerDeposit = buyerDeposit;\r\n        enquery.sellerRcvDeposit = sellerRcvDeposit;\r\n        enquery.sellerPaidDeposit = sellerPaidDeposit;\r\n        enqueries.push(enquery);\r\n        emit EnqueryCreated(enqno, duration, partNo, partName, qty, buyerName);\r\n        return id;\r\n    }\r\n\r\n    //  modifier notBuyer(uint _enqid) {\r\n    //       require(msg.sender != enqueries[_enqid].buyerAdd, \"Buyer not allow to bid\");\r\n    //       _;\r\n    //   }\r\n\r\n    function placeBid(\r\n        uint256 _enqid,\r\n        uint256 _enqno,\r\n        uint256 _amount,\r\n        string memory _supName\r\n    ) public payable returns (bool) {\r\n        //notBuyer(_enqid) returns (bool) {\r\n        uint256 refundVal;\r\n        require(_enqid < enqueries.length, \"not a valid enquery\");\r\n        require(\r\n            msg.sender != enqueries[_enqid].buyerAdd,\r\n            \"Buyer not allow to bid\"\r\n        );\r\n        require(enqueries[_enqid].enqno == _enqno, \"not a valid enquery no\");\r\n        require(\r\n            enqueries[_enqid].status == enqStatus.created,\r\n            \"enquery not open any more\"\r\n        );\r\n        if (enqueries[_enqid].lowestBid.bidder != address(0)) {\r\n            require(\r\n                enqueries[_enqid].lowestBid.amount > _amount,\r\n                \"your quotation price greater than lowest offer\"\r\n            );\r\n        }\r\n        require(\r\n            enqueries[_enqid].enqEndTime > block.timestamp,\r\n            \"enquery has been ended\"\r\n        );\r\n        refundVal =\r\n            enqueries[_enqid].sellerRcvDeposit +\r\n            enqueries[_enqid].sellerPaidDeposit;\r\n        require(\r\n            msg.value == refundVal,\r\n            \"you deposit not equal the require amount\"\r\n        );\r\n        if (enqueries[_enqid].lowestBid.bidder != address(0)) {\r\n            enqueries[_enqid].lowestBid.bidder.transfer(refundVal); // refund back the seller that not win the enquery\r\n        }\r\n        enqueries[_enqid].lowestBid.amount = _amount;\r\n        enqueries[_enqid].lowestBid.supName = _supName;\r\n        enqueries[_enqid].lowestBid.bidder = msg.sender;\r\n        return true;\r\n    }\r\n\r\n    function endEnquery(uint256 _enqid) public returns(bool) {\r\n        require(_enqid < enqueries.length, \"not a valid enquery\");\r\n        require(\r\n            msg.sender == enqueries[_enqid].buyerAdd,\r\n            \"just buyer can close the enquery\"\r\n        );\r\n        require(\r\n            enqueries[_enqid].enqEndTime < block.timestamp,\r\n            \"The enquery has some times to finish\"\r\n        );\r\n        enqueries[_enqid].status = enqStatus.ended;\r\n        return true;\r\n    }\r\n\r\n    function receivedItem(uint256 _enqid) public payable  returns(bool) {\r\n        require(_enqid < enqueries.length, \"not a valid enquery\");\r\n        require(\r\n            enqueries[_enqid].status == enqStatus.ended,\r\n            \"Enquery must be in the end state\"\r\n        );\r\n        require(\r\n            msg.sender == enqueries[_enqid].buyerAdd,\r\n            \"just buyer can tell that received the item\"\r\n        );\r\n        enqueries[_enqid].status = enqStatus.received;\r\n        enqueries[_enqid].lowestBid.bidder.transfer(\r\n            enqueries[_enqid].sellerRcvDeposit\r\n        ); // refund back the winner when buyer received the item\r\n        return true;\r\n    }\r\n\r\n    function settlement(uint256 _enqid) public payable  returns(bool) {\r\n        require(_enqid < enqueries.length, \"not a valid enquery\");\r\n        require(\r\n            enqueries[_enqid].status == enqStatus.received,\r\n            \"Enquery must be in received state\"\r\n        );\r\n        require(\r\n            msg.sender == enqueries[_enqid].lowestBid.bidder,\r\n            \"just winner can do settlement\"\r\n        );\r\n        enqueries[_enqid].status = enqStatus.paid;\r\n        enqueries[_enqid].lowestBid.bidder.transfer(\r\n            enqueries[_enqid].sellerPaidDeposit\r\n        ); // refund back the winner and buyer when settlement has been done\r\n        enqueries[_enqid].buyerAdd.transfer(enqueries[_enqid].buyerDeposit); // refund back the winner and buyer when settlement has been done\r\n        return true;\r\n    }\r\n\r\n    function getEnquery(uint256 id)\r\n        public\r\n        view\r\n        returns (\r\n            uint256,\r\n            uint256,\r\n            string memory,\r\n            string memory,\r\n            string memory,\r\n            uint256,\r\n            string memory,\r\n            string memory,\r\n            enqStatus,\r\n            uint256\r\n        )\r\n    {\r\n        Enquery memory enquery = enqueries[id];\r\n        return (\r\n            enquery.enqno,\r\n            enquery.enqEndTime,\r\n            enquery.partNo,\r\n            enquery.partName,\r\n            enquery.uom,\r\n            enquery.qty,\r\n            enquery.buyerName,\r\n            enquery.locationAddress,\r\n            enquery.status,\r\n            enquery.buyerDeposit\r\n        );\r\n    }\r\n\r\n    function getBid(uint256 id)\r\n        public\r\n        view\r\n        returns (\r\n            address,\r\n            uint256,\r\n            string memory,\r\n            address,\r\n            uint256,\r\n            uint256            \r\n        )\r\n    {\r\n        Enquery memory enquery = enqueries[id];\r\n        return (\r\n            enquery.lowestBid.bidder,\r\n            enquery.lowestBid.amount,\r\n            enquery.lowestBid.supName,\r\n            enquery.buyerAdd,\r\n            enquery.sellerRcvDeposit,\r\n            enquery.sellerPaidDeposit            \r\n        );\r\n    }\r\n\r\n    function getEnqueryCount() public view returns (uint256 count) {\r\n        return (enqueries.length);\r\n    }\r\n\r\n    function getBlocktime() external view returns (uint) {\r\n    return (block.timestamp);\r\n    }\r\n\r\n}\r\n",
  "sourcePath": "D:/entapp/purchase-dapp/contracts/Purchase.sol",
  "compiler": {
    "name": "solc",
    "version": "0.5.16+commit.9c3226ce.Emscripten.clang"
  },
  "schemaVersion": "3.4.1",
  "updatedAt": "2021-06-17T09:36:44.273Z",
  "networkType": "ethereum",
  "devdoc": {
    "methods": {}
  },
  "userdoc": {
    "methods": {}
  }
}